{
	"custom_token/ERC20.sol": {
		"ERC20Basic": {
			"abi": [
				{
					"inputs": [
						{
							"internalType": "uint256",
							"name": "initSupply",
							"type": "uint256"
						}
					],
					"stateMutability": "nonpayable",
					"type": "constructor"
				},
				{
					"anonymous": false,
					"inputs": [
						{
							"indexed": true,
							"internalType": "address",
							"name": "owner",
							"type": "address"
						},
						{
							"indexed": true,
							"internalType": "address",
							"name": "spender",
							"type": "address"
						},
						{
							"indexed": false,
							"internalType": "uint256",
							"name": "value",
							"type": "uint256"
						}
					],
					"name": "Approval",
					"type": "event"
				},
				{
					"anonymous": false,
					"inputs": [
						{
							"indexed": true,
							"internalType": "address",
							"name": "from",
							"type": "address"
						},
						{
							"indexed": true,
							"internalType": "address",
							"name": "to",
							"type": "address"
						},
						{
							"indexed": false,
							"internalType": "uint256",
							"name": "value",
							"type": "uint256"
						}
					],
					"name": "Transfer",
					"type": "event"
				},
				{
					"inputs": [
						{
							"internalType": "address",
							"name": "owner",
							"type": "address"
						},
						{
							"internalType": "address",
							"name": "delegate",
							"type": "address"
						}
					],
					"name": "allawance",
					"outputs": [
						{
							"internalType": "uint256",
							"name": "",
							"type": "uint256"
						}
					],
					"stateMutability": "view",
					"type": "function"
				},
				{
					"inputs": [
						{
							"internalType": "address",
							"name": "delegate",
							"type": "address"
						},
						{
							"internalType": "uint256",
							"name": "numTokens",
							"type": "uint256"
						}
					],
					"name": "approve",
					"outputs": [
						{
							"internalType": "bool",
							"name": "",
							"type": "bool"
						}
					],
					"stateMutability": "nonpayable",
					"type": "function"
				},
				{
					"inputs": [
						{
							"internalType": "address",
							"name": "OwnerToken",
							"type": "address"
						}
					],
					"name": "balanceOf",
					"outputs": [
						{
							"internalType": "uint256",
							"name": "",
							"type": "uint256"
						}
					],
					"stateMutability": "view",
					"type": "function"
				},
				{
					"inputs": [],
					"name": "decimals",
					"outputs": [
						{
							"internalType": "uint8",
							"name": "",
							"type": "uint8"
						}
					],
					"stateMutability": "view",
					"type": "function"
				},
				{
					"inputs": [
						{
							"internalType": "uint256",
							"name": "newTokensAmout",
							"type": "uint256"
						}
					],
					"name": "increaseTotalSupply",
					"outputs": [],
					"stateMutability": "nonpayable",
					"type": "function"
				},
				{
					"inputs": [],
					"name": "name",
					"outputs": [
						{
							"internalType": "string",
							"name": "",
							"type": "string"
						}
					],
					"stateMutability": "view",
					"type": "function"
				},
				{
					"inputs": [],
					"name": "symbol",
					"outputs": [
						{
							"internalType": "string",
							"name": "",
							"type": "string"
						}
					],
					"stateMutability": "view",
					"type": "function"
				},
				{
					"inputs": [],
					"name": "totalSupply",
					"outputs": [
						{
							"internalType": "uint256",
							"name": "",
							"type": "uint256"
						}
					],
					"stateMutability": "view",
					"type": "function"
				},
				{
					"inputs": [
						{
							"internalType": "address",
							"name": "recipient",
							"type": "address"
						},
						{
							"internalType": "uint256",
							"name": "numTokens",
							"type": "uint256"
						}
					],
					"name": "transfer",
					"outputs": [
						{
							"internalType": "bool",
							"name": "",
							"type": "bool"
						}
					],
					"stateMutability": "nonpayable",
					"type": "function"
				},
				{
					"inputs": [
						{
							"internalType": "address",
							"name": "owner",
							"type": "address"
						},
						{
							"internalType": "address",
							"name": "bayer",
							"type": "address"
						},
						{
							"internalType": "uint256",
							"name": "numTokens",
							"type": "uint256"
						}
					],
					"name": "transferFrom",
					"outputs": [
						{
							"internalType": "bool",
							"name": "",
							"type": "bool"
						}
					],
					"stateMutability": "nonpayable",
					"type": "function"
				}
			],
			"devdoc": {
				"kind": "dev",
				"methods": {},
				"version": 1
			},
			"evm": {
				"assembly": "    /* \"custom_token/ERC20.sol\":1281:3272  contract ERC20Basic is IERC20{... */\n  mstore(0x40, 0x80)\n    /* \"custom_token/ERC20.sol\":1771:1897  constructor (uint256 initSupply) public{... */\n  callvalue\n  dup1\n  iszero\n  tag_1\n  jumpi\n  0x00\n  dup1\n  revert\ntag_1:\n  pop\n  mload(0x40)\n  sub(codesize, bytecodeSize)\n  dup1\n  bytecodeSize\n  dup4\n  codecopy\n  dup2\n  dup2\n  add\n  0x40\n  mstore\n  dup2\n  add\n  swap1\n  tag_2\n  swap2\n  swap1\n  tag_3\n  jump\t// in\ntag_2:\n    /* \"custom_token/ERC20.sol\":1835:1845  initSupply */\n  dup1\n    /* \"custom_token/ERC20.sol\":1820:1832  totalSupply_ */\n  0x02\n    /* \"custom_token/ERC20.sol\":1820:1845  totalSupply_ = initSupply */\n  dup2\n  swap1\n  sstore\n  pop\n    /* \"custom_token/ERC20.sol\":1878:1890  totalSupply_ */\n  sload(0x02)\n    /* \"custom_token/ERC20.sol\":1855:1863  balences */\n  0x00\n    /* \"custom_token/ERC20.sol\":1855:1875  balences[msg.sender] */\n  dup1\n    /* \"custom_token/ERC20.sol\":1864:1874  msg.sender */\n  caller\n    /* \"custom_token/ERC20.sol\":1855:1875  balences[msg.sender] */\n  0xffffffffffffffffffffffffffffffffffffffff\n  and\n  0xffffffffffffffffffffffffffffffffffffffff\n  and\n  dup2\n  mstore\n  0x20\n  add\n  swap1\n  dup2\n  mstore\n  0x20\n  add\n  0x00\n  keccak256\n    /* \"custom_token/ERC20.sol\":1855:1890  balences[msg.sender] = totalSupply_ */\n  dup2\n  swap1\n  sstore\n  pop\n    /* \"custom_token/ERC20.sol\":1771:1897  constructor (uint256 initSupply) public{... */\n  pop\n    /* \"custom_token/ERC20.sol\":1281:3272  contract ERC20Basic is IERC20{... */\n  jump(tag_6)\n    /* \"--CODEGEN--\":5:139   */\ntag_8:\n  0x00\n    /* \"--CODEGEN--\":89:95   */\n  dup2\n    /* \"--CODEGEN--\":83:96   */\n  mload\n    /* \"--CODEGEN--\":74:96   */\n  swap1\n  pop\n    /* \"--CODEGEN--\":101:134   */\n  tag_10\n    /* \"--CODEGEN--\":128:133   */\n  dup2\n    /* \"--CODEGEN--\":101:134   */\n  tag_11\n  jump\t// in\ntag_10:\n    /* \"--CODEGEN--\":68:139   */\n  swap3\n  swap2\n  pop\n  pop\n  jump\t// out\n    /* \"--CODEGEN--\":146:409   */\ntag_3:\n  0x00\n    /* \"--CODEGEN--\":261:263   */\n  0x20\n    /* \"--CODEGEN--\":249:258   */\n  dup3\n    /* \"--CODEGEN--\":240:247   */\n  dup5\n    /* \"--CODEGEN--\":236:259   */\n  sub\n    /* \"--CODEGEN--\":232:264   */\n  slt\n    /* \"--CODEGEN--\":229:231   */\n  iszero\n  tag_13\n  jumpi\n    /* \"--CODEGEN--\":277:278   */\n  0x00\n    /* \"--CODEGEN--\":274:275   */\n  dup1\n    /* \"--CODEGEN--\":267:279   */\n  revert\n    /* \"--CODEGEN--\":229:231   */\ntag_13:\n    /* \"--CODEGEN--\":312:313   */\n  0x00\n    /* \"--CODEGEN--\":329:393   */\n  tag_14\n    /* \"--CODEGEN--\":385:392   */\n  dup5\n    /* \"--CODEGEN--\":376:382   */\n  dup3\n    /* \"--CODEGEN--\":365:374   */\n  dup6\n    /* \"--CODEGEN--\":361:383   */\n  add\n    /* \"--CODEGEN--\":329:393   */\n  tag_8\n  jump\t// in\ntag_14:\n    /* \"--CODEGEN--\":319:393   */\n  swap2\n  pop\n    /* \"--CODEGEN--\":291:399   */\n  pop\n    /* \"--CODEGEN--\":223:409   */\n  swap3\n  swap2\n  pop\n  pop\n  jump\t// out\n    /* \"--CODEGEN--\":416:488   */\ntag_15:\n  0x00\n    /* \"--CODEGEN--\":478:483   */\n  dup2\n    /* \"--CODEGEN--\":467:483   */\n  swap1\n  pop\n    /* \"--CODEGEN--\":461:488   */\n  swap2\n  swap1\n  pop\n  jump\t// out\n    /* \"--CODEGEN--\":495:612   */\ntag_11:\n    /* \"--CODEGEN--\":564:588   */\n  tag_18\n    /* \"--CODEGEN--\":582:587   */\n  dup2\n    /* \"--CODEGEN--\":564:588   */\n  tag_15\n  jump\t// in\ntag_18:\n    /* \"--CODEGEN--\":557:562   */\n  dup2\n    /* \"--CODEGEN--\":554:589   */\n  eq\n    /* \"--CODEGEN--\":544:546   */\n  tag_19\n  jumpi\n    /* \"--CODEGEN--\":603:604   */\n  0x00\n    /* \"--CODEGEN--\":600:601   */\n  dup1\n    /* \"--CODEGEN--\":593:605   */\n  revert\n    /* \"--CODEGEN--\":544:546   */\ntag_19:\n    /* \"--CODEGEN--\":538:612   */\n  pop\n  jump\t// out\n    /* \"custom_token/ERC20.sol\":1281:3272  contract ERC20Basic is IERC20{... */\ntag_6:\n  dataSize(sub_0)\n  dup1\n  dataOffset(sub_0)\n  0x00\n  codecopy\n  0x00\n  return\nstop\n\nsub_0: assembly {\n        /* \"custom_token/ERC20.sol\":1281:3272  contract ERC20Basic is IERC20{... */\n      mstore(0x40, 0x80)\n      callvalue\n      dup1\n      iszero\n      tag_1\n      jumpi\n      0x00\n      dup1\n      revert\n    tag_1:\n      pop\n      jumpi(tag_2, lt(calldatasize, 0x04))\n      shr(0xe0, calldataload(0x00))\n      dup1\n      0x23b872dd\n      gt\n      tag_13\n      jumpi\n      dup1\n      0x23b872dd\n      eq\n      tag_8\n      jumpi\n      dup1\n      0x313ce567\n      eq\n      tag_9\n      jumpi\n      dup1\n      0x70a08231\n      eq\n      tag_10\n      jumpi\n      dup1\n      0x95d89b41\n      eq\n      tag_11\n      jumpi\n      dup1\n      0xa9059cbb\n      eq\n      tag_12\n      jumpi\n      jump(tag_2)\n    tag_13:\n      dup1\n      0x06fdde03\n      eq\n      tag_3\n      jumpi\n      dup1\n      0x092c8d35\n      eq\n      tag_4\n      jumpi\n      dup1\n      0x095ea7b3\n      eq\n      tag_5\n      jumpi\n      dup1\n      0x18160ddd\n      eq\n      tag_6\n      jumpi\n      dup1\n      0x1d43cc98\n      eq\n      tag_7\n      jumpi\n    tag_2:\n      0x00\n      dup1\n      revert\n        /* \"custom_token/ERC20.sol\":1317:1358  string public constant name = \"ERCBLOCK1\" */\n    tag_3:\n      tag_14\n      tag_15\n      jump\t// in\n    tag_14:\n      mload(0x40)\n      tag_16\n      swap2\n      swap1\n      tag_17\n      jump\t// in\n    tag_16:\n      mload(0x40)\n      dup1\n      swap2\n      sub\n      swap1\n      return\n        /* \"custom_token/ERC20.sol\":2292:2430  function allawance(address owner, address delegate) public override view returns (uint256){... */\n    tag_4:\n      tag_18\n      0x04\n      dup1\n      calldatasize\n      sub\n      dup2\n      add\n      swap1\n      tag_19\n      swap2\n      swap1\n      tag_20\n      jump\t// in\n    tag_19:\n      tag_21\n      jump\t// in\n    tag_18:\n      mload(0x40)\n      tag_22\n      swap2\n      swap1\n      tag_23\n      jump\t// in\n    tag_22:\n      mload(0x40)\n      dup1\n      swap2\n      sub\n      swap1\n      return\n        /* \"custom_token/ERC20.sol\":2809:3028  function approve(address delegate, uint256 numTokens) public override returns (bool){... */\n    tag_5:\n      tag_24\n      0x04\n      dup1\n      calldatasize\n      sub\n      dup2\n      add\n      swap1\n      tag_25\n      swap2\n      swap1\n      tag_26\n      jump\t// in\n    tag_25:\n      tag_27\n      jump\t// in\n    tag_24:\n      mload(0x40)\n      tag_28\n      swap2\n      swap1\n      tag_29\n      jump\t// in\n    tag_28:\n      mload(0x40)\n      dup1\n      swap2\n      sub\n      swap1\n      return\n        /* \"custom_token/ERC20.sol\":1903:2000  function totalSupply() public override view returns (uint256){... */\n    tag_6:\n      tag_30\n      tag_31\n      jump\t// in\n    tag_30:\n      mload(0x40)\n      tag_32\n      swap2\n      swap1\n      tag_23\n      jump\t// in\n    tag_32:\n      mload(0x40)\n      dup1\n      swap2\n      sub\n      swap1\n      return\n        /* \"custom_token/ERC20.sol\":2006:2159  function increaseTotalSupply (uint newTokensAmout) public {... */\n    tag_7:\n      tag_33\n      0x04\n      dup1\n      calldatasize\n      sub\n      dup2\n      add\n      swap1\n      tag_34\n      swap2\n      swap1\n      tag_35\n      jump\t// in\n    tag_34:\n      tag_36\n      jump\t// in\n    tag_33:\n      stop\n        /* \"custom_token/ERC20.sol\":3034:3269  function transferFrom(address owner, address bayer, uint256 numTokens) public override returns (bool){... */\n    tag_8:\n      tag_37\n      0x04\n      dup1\n      calldatasize\n      sub\n      dup2\n      add\n      swap1\n      tag_38\n      swap2\n      swap1\n      tag_39\n      jump\t// in\n    tag_38:\n      tag_40\n      jump\t// in\n    tag_37:\n      mload(0x40)\n      tag_41\n      swap2\n      swap1\n      tag_29\n      jump\t// in\n    tag_41:\n      mload(0x40)\n      dup1\n      swap2\n      sub\n      swap1\n      return\n        /* \"custom_token/ERC20.sol\":1407:1442  uint8 public constant decimals = 18 */\n    tag_9:\n      tag_42\n      tag_43\n      jump\t// in\n    tag_42:\n      mload(0x40)\n      tag_44\n      swap2\n      swap1\n      tag_45\n      jump\t// in\n    tag_44:\n      mload(0x40)\n      dup1\n      swap2\n      sub\n      swap1\n      return\n        /* \"custom_token/ERC20.sol\":2165:2286  function balanceOf(address OwnerToken) public override view returns (uint256){... */\n    tag_10:\n      tag_46\n      0x04\n      dup1\n      calldatasize\n      sub\n      dup2\n      add\n      swap1\n      tag_47\n      swap2\n      swap1\n      tag_48\n      jump\t// in\n    tag_47:\n      tag_49\n      jump\t// in\n    tag_46:\n      mload(0x40)\n      tag_50\n      swap2\n      swap1\n      tag_23\n      jump\t// in\n    tag_50:\n      mload(0x40)\n      dup1\n      swap2\n      sub\n      swap1\n      return\n        /* \"custom_token/ERC20.sol\":1364:1401  string public constant symbol = \"ERC\" */\n    tag_11:\n      tag_51\n      tag_52\n      jump\t// in\n    tag_51:\n      mload(0x40)\n      tag_53\n      swap2\n      swap1\n      tag_17\n      jump\t// in\n    tag_53:\n      mload(0x40)\n      dup1\n      swap2\n      sub\n      swap1\n      return\n        /* \"custom_token/ERC20.sol\":2436:2803  function transfer(address recipient, uint256 numTokens) public override returns (bool){... */\n    tag_12:\n      tag_54\n      0x04\n      dup1\n      calldatasize\n      sub\n      dup2\n      add\n      swap1\n      tag_55\n      swap2\n      swap1\n      tag_26\n      jump\t// in\n    tag_55:\n      tag_56\n      jump\t// in\n    tag_54:\n      mload(0x40)\n      tag_57\n      swap2\n      swap1\n      tag_29\n      jump\t// in\n    tag_57:\n      mload(0x40)\n      dup1\n      swap2\n      sub\n      swap1\n      return\n        /* \"custom_token/ERC20.sol\":1317:1358  string public constant name = \"ERCBLOCK1\" */\n    tag_15:\n      mload(0x40)\n      dup1\n      0x40\n      add\n      0x40\n      mstore\n      dup1\n      0x09\n      dup2\n      mstore\n      0x20\n      add\n      0x455243424c4f434b310000000000000000000000000000000000000000000000\n      dup2\n      mstore\n      pop\n      dup2\n      jump\t// out\n        /* \"custom_token/ERC20.sol\":2292:2430  function allawance(address owner, address delegate) public override view returns (uint256){... */\n    tag_21:\n        /* \"custom_token/ERC20.sol\":2374:2381  uint256 */\n      0x00\n        /* \"custom_token/ERC20.sol\":2399:2406  allowed */\n      0x01\n        /* \"custom_token/ERC20.sol\":2399:2413  allowed[owner] */\n      0x00\n        /* \"custom_token/ERC20.sol\":2407:2412  owner */\n      dup5\n        /* \"custom_token/ERC20.sol\":2399:2413  allowed[owner] */\n      0xffffffffffffffffffffffffffffffffffffffff\n      and\n      0xffffffffffffffffffffffffffffffffffffffff\n      and\n      dup2\n      mstore\n      0x20\n      add\n      swap1\n      dup2\n      mstore\n      0x20\n      add\n      0x00\n      keccak256\n        /* \"custom_token/ERC20.sol\":2399:2423  allowed[owner][delegate] */\n      0x00\n        /* \"custom_token/ERC20.sol\":2414:2422  delegate */\n      dup4\n        /* \"custom_token/ERC20.sol\":2399:2423  allowed[owner][delegate] */\n      0xffffffffffffffffffffffffffffffffffffffff\n      and\n      0xffffffffffffffffffffffffffffffffffffffff\n      and\n      dup2\n      mstore\n      0x20\n      add\n      swap1\n      dup2\n      mstore\n      0x20\n      add\n      0x00\n      keccak256\n      sload\n        /* \"custom_token/ERC20.sol\":2392:2423  return allowed[owner][delegate] */\n      swap1\n      pop\n        /* \"custom_token/ERC20.sol\":2292:2430  function allawance(address owner, address delegate) public override view returns (uint256){... */\n      swap3\n      swap2\n      pop\n      pop\n      jump\t// out\n        /* \"custom_token/ERC20.sol\":2809:3028  function approve(address delegate, uint256 numTokens) public override returns (bool){... */\n    tag_27:\n        /* \"custom_token/ERC20.sol\":2888:2892  bool */\n      0x00\n        /* \"custom_token/ERC20.sol\":2935:2944  numTokens */\n      dup2\n        /* \"custom_token/ERC20.sol\":2903:2910  allowed */\n      0x01\n        /* \"custom_token/ERC20.sol\":2903:2922  allowed[msg.sender] */\n      0x00\n        /* \"custom_token/ERC20.sol\":2911:2921  msg.sender */\n      caller\n        /* \"custom_token/ERC20.sol\":2903:2922  allowed[msg.sender] */\n      0xffffffffffffffffffffffffffffffffffffffff\n      and\n      0xffffffffffffffffffffffffffffffffffffffff\n      and\n      dup2\n      mstore\n      0x20\n      add\n      swap1\n      dup2\n      mstore\n      0x20\n      add\n      0x00\n      keccak256\n        /* \"custom_token/ERC20.sol\":2903:2932  allowed[msg.sender][delegate] */\n      0x00\n        /* \"custom_token/ERC20.sol\":2923:2931  delegate */\n      dup6\n        /* \"custom_token/ERC20.sol\":2903:2932  allowed[msg.sender][delegate] */\n      0xffffffffffffffffffffffffffffffffffffffff\n      and\n      0xffffffffffffffffffffffffffffffffffffffff\n      and\n      dup2\n      mstore\n      0x20\n      add\n      swap1\n      dup2\n      mstore\n      0x20\n      add\n      0x00\n      keccak256\n        /* \"custom_token/ERC20.sol\":2903:2944  allowed[msg.sender][delegate] = numTokens */\n      dup2\n      swap1\n      sstore\n      pop\n        /* \"custom_token/ERC20.sol\":2980:2988  delegate */\n      dup3\n        /* \"custom_token/ERC20.sol\":2959:3000  Transfer(msg.sender, delegate, numTokens) */\n      0xffffffffffffffffffffffffffffffffffffffff\n      and\n        /* \"custom_token/ERC20.sol\":2968:2978  msg.sender */\n      caller\n        /* \"custom_token/ERC20.sol\":2959:3000  Transfer(msg.sender, delegate, numTokens) */\n      0xffffffffffffffffffffffffffffffffffffffff\n      and\n      0xddf252ad1be2c89b69c2b068fc378daa952ba7f163c4a11628f55a4df523b3ef\n        /* \"custom_token/ERC20.sol\":2990:2999  numTokens */\n      dup5\n        /* \"custom_token/ERC20.sol\":2959:3000  Transfer(msg.sender, delegate, numTokens) */\n      mload(0x40)\n      tag_60\n      swap2\n      swap1\n      tag_23\n      jump\t// in\n    tag_60:\n      mload(0x40)\n      dup1\n      swap2\n      sub\n      swap1\n      log3\n        /* \"custom_token/ERC20.sol\":3017:3021  true */\n      0x01\n        /* \"custom_token/ERC20.sol\":3010:3021  return true */\n      swap1\n      pop\n        /* \"custom_token/ERC20.sol\":2809:3028  function approve(address delegate, uint256 numTokens) public override returns (bool){... */\n      swap3\n      swap2\n      pop\n      pop\n      jump\t// out\n        /* \"custom_token/ERC20.sol\":1903:2000  function totalSupply() public override view returns (uint256){... */\n    tag_31:\n        /* \"custom_token/ERC20.sol\":1956:1963  uint256 */\n      0x00\n        /* \"custom_token/ERC20.sol\":1981:1993  totalSupply_ */\n      sload(0x02)\n        /* \"custom_token/ERC20.sol\":1974:1993  return totalSupply_ */\n      swap1\n      pop\n        /* \"custom_token/ERC20.sol\":1903:2000  function totalSupply() public override view returns (uint256){... */\n      swap1\n      jump\t// out\n        /* \"custom_token/ERC20.sol\":2006:2159  function increaseTotalSupply (uint newTokensAmout) public {... */\n    tag_36:\n        /* \"custom_token/ERC20.sol\":2090:2104  newTokensAmout */\n      dup1\n        /* \"custom_token/ERC20.sol\":2074:2086  totalSupply_ */\n      0x02\n      0x00\n        /* \"custom_token/ERC20.sol\":2074:2104  totalSupply_ += newTokensAmout */\n      dup3\n      dup3\n      sload\n      add\n      swap3\n      pop\n      pop\n      dup2\n      swap1\n      sstore\n      pop\n        /* \"custom_token/ERC20.sol\":2138:2152  newTokensAmout */\n      dup1\n        /* \"custom_token/ERC20.sol\":2114:2122  balences */\n      0x00\n        /* \"custom_token/ERC20.sol\":2114:2134  balences[msg.sender] */\n      dup1\n        /* \"custom_token/ERC20.sol\":2123:2133  msg.sender */\n      caller\n        /* \"custom_token/ERC20.sol\":2114:2134  balences[msg.sender] */\n      0xffffffffffffffffffffffffffffffffffffffff\n      and\n      0xffffffffffffffffffffffffffffffffffffffff\n      and\n      dup2\n      mstore\n      0x20\n      add\n      swap1\n      dup2\n      mstore\n      0x20\n      add\n      0x00\n      keccak256\n      0x00\n        /* \"custom_token/ERC20.sol\":2114:2152  balences[msg.sender] += newTokensAmout */\n      dup3\n      dup3\n      sload\n      add\n      swap3\n      pop\n      pop\n      dup2\n      swap1\n      sstore\n      pop\n        /* \"custom_token/ERC20.sol\":2006:2159  function increaseTotalSupply (uint newTokensAmout) public {... */\n      pop\n      jump\t// out\n        /* \"custom_token/ERC20.sol\":3034:3269  function transferFrom(address owner, address bayer, uint256 numTokens) public override returns (bool){... */\n    tag_40:\n        /* \"custom_token/ERC20.sol\":3130:3134  bool */\n      0x00\n        /* \"custom_token/ERC20.sol\":3166:3174  balences */\n      dup1\n        /* \"custom_token/ERC20.sol\":3166:3181  balences[owner] */\n      0x00\n        /* \"custom_token/ERC20.sol\":3175:3180  owner */\n      dup6\n        /* \"custom_token/ERC20.sol\":3166:3181  balences[owner] */\n      0xffffffffffffffffffffffffffffffffffffffff\n      and\n      0xffffffffffffffffffffffffffffffffffffffff\n      and\n      dup2\n      mstore\n      0x20\n      add\n      swap1\n      dup2\n      mstore\n      0x20\n      add\n      0x00\n      keccak256\n      sload\n        /* \"custom_token/ERC20.sol\":3153:3162  numTokens */\n      dup3\n        /* \"custom_token/ERC20.sol\":3153:3181  numTokens <= balences[owner] */\n      gt\n      iszero\n        /* \"custom_token/ERC20.sol\":3145:3182  require(numTokens <= balences[owner]) */\n      tag_64\n      jumpi\n      0x00\n      dup1\n      revert\n    tag_64:\n        /* \"custom_token/ERC20.sol\":3213:3220  allowed */\n      0x01\n        /* \"custom_token/ERC20.sol\":3213:3227  allowed[owner] */\n      0x00\n        /* \"custom_token/ERC20.sol\":3221:3226  owner */\n      dup6\n        /* \"custom_token/ERC20.sol\":3213:3227  allowed[owner] */\n      0xffffffffffffffffffffffffffffffffffffffff\n      and\n      0xffffffffffffffffffffffffffffffffffffffff\n      and\n      dup2\n      mstore\n      0x20\n      add\n      swap1\n      dup2\n      mstore\n      0x20\n      add\n      0x00\n      keccak256\n        /* \"custom_token/ERC20.sol\":3213:3239  allowed[owner][msg.sender] */\n      0x00\n        /* \"custom_token/ERC20.sol\":3228:3238  msg.sender */\n      caller\n        /* \"custom_token/ERC20.sol\":3213:3239  allowed[owner][msg.sender] */\n      0xffffffffffffffffffffffffffffffffffffffff\n      and\n      0xffffffffffffffffffffffffffffffffffffffff\n      and\n      dup2\n      mstore\n      0x20\n      add\n      swap1\n      dup2\n      mstore\n      0x20\n      add\n      0x00\n      keccak256\n      sload\n        /* \"custom_token/ERC20.sol\":3200:3209  numTokens */\n      dup3\n        /* \"custom_token/ERC20.sol\":3200:3239  numTokens <= allowed[owner][msg.sender] */\n      gt\n      iszero\n        /* \"custom_token/ERC20.sol\":3192:3240  require(numTokens <= allowed[owner][msg.sender]) */\n      tag_65\n      jumpi\n      0x00\n      dup1\n      revert\n    tag_65:\n        /* \"custom_token/ERC20.sol\":3257:3262  false */\n      0x00\n        /* \"custom_token/ERC20.sol\":3250:3262  return false */\n      swap1\n      pop\n        /* \"custom_token/ERC20.sol\":3034:3269  function transferFrom(address owner, address bayer, uint256 numTokens) public override returns (bool){... */\n      swap4\n      swap3\n      pop\n      pop\n      pop\n      jump\t// out\n        /* \"custom_token/ERC20.sol\":1407:1442  uint8 public constant decimals = 18 */\n    tag_43:\n        /* \"custom_token/ERC20.sol\":1440:1442  18 */\n      0x12\n        /* \"custom_token/ERC20.sol\":1407:1442  uint8 public constant decimals = 18 */\n      dup2\n      jump\t// out\n        /* \"custom_token/ERC20.sol\":2165:2286  function balanceOf(address OwnerToken) public override view returns (uint256){... */\n    tag_49:\n        /* \"custom_token/ERC20.sol\":2234:2241  uint256 */\n      0x00\n        /* \"custom_token/ERC20.sol\":2259:2267  balences */\n      dup1\n        /* \"custom_token/ERC20.sol\":2259:2279  balences[OwnerToken] */\n      0x00\n        /* \"custom_token/ERC20.sol\":2268:2278  OwnerToken */\n      dup4\n        /* \"custom_token/ERC20.sol\":2259:2279  balences[OwnerToken] */\n      0xffffffffffffffffffffffffffffffffffffffff\n      and\n      0xffffffffffffffffffffffffffffffffffffffff\n      and\n      dup2\n      mstore\n      0x20\n      add\n      swap1\n      dup2\n      mstore\n      0x20\n      add\n      0x00\n      keccak256\n      sload\n        /* \"custom_token/ERC20.sol\":2252:2279  return balences[OwnerToken] */\n      swap1\n      pop\n        /* \"custom_token/ERC20.sol\":2165:2286  function balanceOf(address OwnerToken) public override view returns (uint256){... */\n      swap2\n      swap1\n      pop\n      jump\t// out\n        /* \"custom_token/ERC20.sol\":1364:1401  string public constant symbol = \"ERC\" */\n    tag_52:\n      mload(0x40)\n      dup1\n      0x40\n      add\n      0x40\n      mstore\n      dup1\n      0x03\n      dup2\n      mstore\n      0x20\n      add\n      0x4552430000000000000000000000000000000000000000000000000000000000\n      dup2\n      mstore\n      pop\n      dup2\n      jump\t// out\n        /* \"custom_token/ERC20.sol\":2436:2803  function transfer(address recipient, uint256 numTokens) public override returns (bool){... */\n    tag_56:\n        /* \"custom_token/ERC20.sol\":2517:2521  bool */\n      0x00\n        /* \"custom_token/ERC20.sol\":2562:2570  balences */\n      dup1\n        /* \"custom_token/ERC20.sol\":2562:2582  balences[msg.sender] */\n      0x00\n        /* \"custom_token/ERC20.sol\":2571:2581  msg.sender */\n      caller\n        /* \"custom_token/ERC20.sol\":2562:2582  balences[msg.sender] */\n      0xffffffffffffffffffffffffffffffffffffffff\n      and\n      0xffffffffffffffffffffffffffffffffffffffff\n      and\n      dup2\n      mstore\n      0x20\n      add\n      swap1\n      dup2\n      mstore\n      0x20\n      add\n      0x00\n      keccak256\n      sload\n        /* \"custom_token/ERC20.sol\":2549:2558  numTokens */\n      dup3\n        /* \"custom_token/ERC20.sol\":2549:2582  numTokens <= balences[msg.sender] */\n      gt\n      iszero\n        /* \"custom_token/ERC20.sol\":2541:2583  require(numTokens <= balences[msg.sender]) */\n      tag_68\n      jumpi\n      0x00\n      dup1\n      revert\n    tag_68:\n        /* \"custom_token/ERC20.sol\":2616:2651  balences[msg.sender].sub(numTokens) */\n      tag_69\n        /* \"custom_token/ERC20.sol\":2641:2650  numTokens */\n      dup3\n        /* \"custom_token/ERC20.sol\":2616:2624  balences */\n      0x00\n        /* \"custom_token/ERC20.sol\":2616:2636  balences[msg.sender] */\n      dup1\n        /* \"custom_token/ERC20.sol\":2625:2635  msg.sender */\n      caller\n        /* \"custom_token/ERC20.sol\":2616:2636  balences[msg.sender] */\n      0xffffffffffffffffffffffffffffffffffffffff\n      and\n      0xffffffffffffffffffffffffffffffffffffffff\n      and\n      dup2\n      mstore\n      0x20\n      add\n      swap1\n      dup2\n      mstore\n      0x20\n      add\n      0x00\n      keccak256\n      sload\n        /* \"custom_token/ERC20.sol\":2616:2640  balences[msg.sender].sub */\n      tag_70\n      swap1\n        /* \"custom_token/ERC20.sol\":2616:2651  balences[msg.sender].sub(numTokens) */\n      swap2\n      swap1\n      0xffffffff\n      and\n      jump\t// in\n    tag_69:\n        /* \"custom_token/ERC20.sol\":2593:2601  balences */\n      0x00\n        /* \"custom_token/ERC20.sol\":2593:2613  balences[msg.sender] */\n      dup1\n        /* \"custom_token/ERC20.sol\":2602:2612  msg.sender */\n      caller\n        /* \"custom_token/ERC20.sol\":2593:2613  balences[msg.sender] */\n      0xffffffffffffffffffffffffffffffffffffffff\n      and\n      0xffffffffffffffffffffffffffffffffffffffff\n      and\n      dup2\n      mstore\n      0x20\n      add\n      swap1\n      dup2\n      mstore\n      0x20\n      add\n      0x00\n      keccak256\n        /* \"custom_token/ERC20.sol\":2593:2651  balences[msg.sender] = balences[msg.sender].sub(numTokens) */\n      dup2\n      swap1\n      sstore\n      pop\n        /* \"custom_token/ERC20.sol\":2683:2717  balences[recipient].add(numTokens) */\n      tag_71\n        /* \"custom_token/ERC20.sol\":2707:2716  numTokens */\n      dup3\n        /* \"custom_token/ERC20.sol\":2683:2691  balences */\n      0x00\n        /* \"custom_token/ERC20.sol\":2683:2702  balences[recipient] */\n      dup1\n        /* \"custom_token/ERC20.sol\":2692:2701  recipient */\n      dup7\n        /* \"custom_token/ERC20.sol\":2683:2702  balences[recipient] */\n      0xffffffffffffffffffffffffffffffffffffffff\n      and\n      0xffffffffffffffffffffffffffffffffffffffff\n      and\n      dup2\n      mstore\n      0x20\n      add\n      swap1\n      dup2\n      mstore\n      0x20\n      add\n      0x00\n      keccak256\n      sload\n        /* \"custom_token/ERC20.sol\":2683:2706  balences[recipient].add */\n      tag_72\n      swap1\n        /* \"custom_token/ERC20.sol\":2683:2717  balences[recipient].add(numTokens) */\n      swap2\n      swap1\n      0xffffffff\n      and\n      jump\t// in\n    tag_71:\n        /* \"custom_token/ERC20.sol\":2661:2669  balences */\n      0x00\n        /* \"custom_token/ERC20.sol\":2661:2680  balences[recipient] */\n      dup1\n        /* \"custom_token/ERC20.sol\":2670:2679  recipient */\n      dup6\n        /* \"custom_token/ERC20.sol\":2661:2680  balences[recipient] */\n      0xffffffffffffffffffffffffffffffffffffffff\n      and\n      0xffffffffffffffffffffffffffffffffffffffff\n      and\n      dup2\n      mstore\n      0x20\n      add\n      swap1\n      dup2\n      mstore\n      0x20\n      add\n      0x00\n      keccak256\n        /* \"custom_token/ERC20.sol\":2661:2717  balences[recipient] = balences[recipient].add(numTokens) */\n      dup2\n      swap1\n      sstore\n      pop\n        /* \"custom_token/ERC20.sol\":2753:2762  recipient */\n      dup3\n        /* \"custom_token/ERC20.sol\":2732:2774  Transfer(msg.sender, recipient, numTokens) */\n      0xffffffffffffffffffffffffffffffffffffffff\n      and\n        /* \"custom_token/ERC20.sol\":2741:2751  msg.sender */\n      caller\n        /* \"custom_token/ERC20.sol\":2732:2774  Transfer(msg.sender, recipient, numTokens) */\n      0xffffffffffffffffffffffffffffffffffffffff\n      and\n      0xddf252ad1be2c89b69c2b068fc378daa952ba7f163c4a11628f55a4df523b3ef\n        /* \"custom_token/ERC20.sol\":2764:2773  numTokens */\n      dup5\n        /* \"custom_token/ERC20.sol\":2732:2774  Transfer(msg.sender, recipient, numTokens) */\n      mload(0x40)\n      tag_73\n      swap2\n      swap1\n      tag_23\n      jump\t// in\n    tag_73:\n      mload(0x40)\n      dup1\n      swap2\n      sub\n      swap1\n      log3\n        /* \"custom_token/ERC20.sol\":2792:2796  true */\n      0x01\n        /* \"custom_token/ERC20.sol\":2785:2796  return true */\n      swap1\n      pop\n        /* \"custom_token/ERC20.sol\":2436:2803  function transfer(address recipient, uint256 numTokens) public override returns (bool){... */\n      swap3\n      swap2\n      pop\n      pop\n      jump\t// out\n        /* \"custom_token/SafeMath.sol\":308:424  function sub(uint256 a, uint256 b) internal pure returns (uint256) {... */\n    tag_70:\n        /* \"custom_token/SafeMath.sol\":366:373  uint256 */\n      0x00\n        /* \"custom_token/SafeMath.sol\":395:396  a */\n      dup3\n        /* \"custom_token/SafeMath.sol\":390:391  b */\n      dup3\n        /* \"custom_token/SafeMath.sol\":390:396  b <= a */\n      gt\n      iszero\n        /* \"custom_token/SafeMath.sol\":383:397  assert(b <= a) */\n      tag_75\n      jumpi\n      invalid\n    tag_75:\n        /* \"custom_token/SafeMath.sol\":416:417  b */\n      dup2\n        /* \"custom_token/SafeMath.sol\":412:413  a */\n      dup4\n        /* \"custom_token/SafeMath.sol\":412:417  a - b */\n      sub\n        /* \"custom_token/SafeMath.sol\":405:417  return a - b */\n      swap1\n      pop\n        /* \"custom_token/SafeMath.sol\":308:424  function sub(uint256 a, uint256 b) internal pure returns (uint256) {... */\n      swap3\n      swap2\n      pop\n      pop\n      jump\t// out\n        /* \"custom_token/SafeMath.sol\":447:584  function add(uint256 a, uint256 b) internal pure returns (uint256) {... */\n    tag_72:\n        /* \"custom_token/SafeMath.sol\":505:512  uint256 */\n      0x00\n        /* \"custom_token/SafeMath.sol\":522:531  uint256 c */\n      dup1\n        /* \"custom_token/SafeMath.sol\":538:539  b */\n      dup3\n        /* \"custom_token/SafeMath.sol\":534:535  a */\n      dup5\n        /* \"custom_token/SafeMath.sol\":534:539  a + b */\n      add\n        /* \"custom_token/SafeMath.sol\":522:539  uint256 c = a + b */\n      swap1\n      pop\n        /* \"custom_token/SafeMath.sol\":559:560  a */\n      dup4\n        /* \"custom_token/SafeMath.sol\":554:555  c */\n      dup2\n        /* \"custom_token/SafeMath.sol\":554:560  c >= a */\n      lt\n      iszero\n        /* \"custom_token/SafeMath.sol\":547:561  assert(c >= a) */\n      tag_77\n      jumpi\n      invalid\n    tag_77:\n        /* \"custom_token/SafeMath.sol\":576:577  c */\n      dup1\n        /* \"custom_token/SafeMath.sol\":569:577  return c */\n      swap2\n      pop\n      pop\n        /* \"custom_token/SafeMath.sol\":447:584  function add(uint256 a, uint256 b) internal pure returns (uint256) {... */\n      swap3\n      swap2\n      pop\n      pop\n      jump\t// out\n        /* \"--CODEGEN--\":5:135   */\n    tag_79:\n      0x00\n        /* \"--CODEGEN--\":85:91   */\n      dup2\n        /* \"--CODEGEN--\":72:92   */\n      calldataload\n        /* \"--CODEGEN--\":63:92   */\n      swap1\n      pop\n        /* \"--CODEGEN--\":97:130   */\n      tag_81\n        /* \"--CODEGEN--\":124:129   */\n      dup2\n        /* \"--CODEGEN--\":97:130   */\n      tag_82\n      jump\t// in\n    tag_81:\n        /* \"--CODEGEN--\":57:135   */\n      swap3\n      swap2\n      pop\n      pop\n      jump\t// out\n        /* \"--CODEGEN--\":142:272   */\n    tag_83:\n      0x00\n        /* \"--CODEGEN--\":222:228   */\n      dup2\n        /* \"--CODEGEN--\":209:229   */\n      calldataload\n        /* \"--CODEGEN--\":200:229   */\n      swap1\n      pop\n        /* \"--CODEGEN--\":234:267   */\n      tag_85\n        /* \"--CODEGEN--\":261:266   */\n      dup2\n        /* \"--CODEGEN--\":234:267   */\n      tag_86\n      jump\t// in\n    tag_85:\n        /* \"--CODEGEN--\":194:272   */\n      swap3\n      swap2\n      pop\n      pop\n      jump\t// out\n        /* \"--CODEGEN--\":279:520   */\n    tag_48:\n      0x00\n        /* \"--CODEGEN--\":383:385   */\n      0x20\n        /* \"--CODEGEN--\":371:380   */\n      dup3\n        /* \"--CODEGEN--\":362:369   */\n      dup5\n        /* \"--CODEGEN--\":358:381   */\n      sub\n        /* \"--CODEGEN--\":354:386   */\n      slt\n        /* \"--CODEGEN--\":351:353   */\n      iszero\n      tag_88\n      jumpi\n        /* \"--CODEGEN--\":399:400   */\n      0x00\n        /* \"--CODEGEN--\":396:397   */\n      dup1\n        /* \"--CODEGEN--\":389:401   */\n      revert\n        /* \"--CODEGEN--\":351:353   */\n    tag_88:\n        /* \"--CODEGEN--\":434:435   */\n      0x00\n        /* \"--CODEGEN--\":451:504   */\n      tag_89\n        /* \"--CODEGEN--\":496:503   */\n      dup5\n        /* \"--CODEGEN--\":487:493   */\n      dup3\n        /* \"--CODEGEN--\":476:485   */\n      dup6\n        /* \"--CODEGEN--\":472:494   */\n      add\n        /* \"--CODEGEN--\":451:504   */\n      tag_79\n      jump\t// in\n    tag_89:\n        /* \"--CODEGEN--\":441:504   */\n      swap2\n      pop\n        /* \"--CODEGEN--\":413:510   */\n      pop\n        /* \"--CODEGEN--\":345:520   */\n      swap3\n      swap2\n      pop\n      pop\n      jump\t// out\n        /* \"--CODEGEN--\":527:893   */\n    tag_20:\n      0x00\n      dup1\n        /* \"--CODEGEN--\":648:650   */\n      0x40\n        /* \"--CODEGEN--\":636:645   */\n      dup4\n        /* \"--CODEGEN--\":627:634   */\n      dup6\n        /* \"--CODEGEN--\":623:646   */\n      sub\n        /* \"--CODEGEN--\":619:651   */\n      slt\n        /* \"--CODEGEN--\":616:618   */\n      iszero\n      tag_91\n      jumpi\n        /* \"--CODEGEN--\":664:665   */\n      0x00\n        /* \"--CODEGEN--\":661:662   */\n      dup1\n        /* \"--CODEGEN--\":654:666   */\n      revert\n        /* \"--CODEGEN--\":616:618   */\n    tag_91:\n        /* \"--CODEGEN--\":699:700   */\n      0x00\n        /* \"--CODEGEN--\":716:769   */\n      tag_92\n        /* \"--CODEGEN--\":761:768   */\n      dup6\n        /* \"--CODEGEN--\":752:758   */\n      dup3\n        /* \"--CODEGEN--\":741:750   */\n      dup7\n        /* \"--CODEGEN--\":737:759   */\n      add\n        /* \"--CODEGEN--\":716:769   */\n      tag_79\n      jump\t// in\n    tag_92:\n        /* \"--CODEGEN--\":706:769   */\n      swap3\n      pop\n        /* \"--CODEGEN--\":678:775   */\n      pop\n        /* \"--CODEGEN--\":806:808   */\n      0x20\n        /* \"--CODEGEN--\":824:877   */\n      tag_93\n        /* \"--CODEGEN--\":869:876   */\n      dup6\n        /* \"--CODEGEN--\":860:866   */\n      dup3\n        /* \"--CODEGEN--\":849:858   */\n      dup7\n        /* \"--CODEGEN--\":845:867   */\n      add\n        /* \"--CODEGEN--\":824:877   */\n      tag_79\n      jump\t// in\n    tag_93:\n        /* \"--CODEGEN--\":814:877   */\n      swap2\n      pop\n        /* \"--CODEGEN--\":785:883   */\n      pop\n        /* \"--CODEGEN--\":610:893   */\n      swap3\n      pop\n      swap3\n      swap1\n      pop\n      jump\t// out\n        /* \"--CODEGEN--\":900:1391   */\n    tag_39:\n      0x00\n      dup1\n      0x00\n        /* \"--CODEGEN--\":1038:1040   */\n      0x60\n        /* \"--CODEGEN--\":1026:1035   */\n      dup5\n        /* \"--CODEGEN--\":1017:1024   */\n      dup7\n        /* \"--CODEGEN--\":1013:1036   */\n      sub\n        /* \"--CODEGEN--\":1009:1041   */\n      slt\n        /* \"--CODEGEN--\":1006:1008   */\n      iszero\n      tag_95\n      jumpi\n        /* \"--CODEGEN--\":1054:1055   */\n      0x00\n        /* \"--CODEGEN--\":1051:1052   */\n      dup1\n        /* \"--CODEGEN--\":1044:1056   */\n      revert\n        /* \"--CODEGEN--\":1006:1008   */\n    tag_95:\n        /* \"--CODEGEN--\":1089:1090   */\n      0x00\n        /* \"--CODEGEN--\":1106:1159   */\n      tag_96\n        /* \"--CODEGEN--\":1151:1158   */\n      dup7\n        /* \"--CODEGEN--\":1142:1148   */\n      dup3\n        /* \"--CODEGEN--\":1131:1140   */\n      dup8\n        /* \"--CODEGEN--\":1127:1149   */\n      add\n        /* \"--CODEGEN--\":1106:1159   */\n      tag_79\n      jump\t// in\n    tag_96:\n        /* \"--CODEGEN--\":1096:1159   */\n      swap4\n      pop\n        /* \"--CODEGEN--\":1068:1165   */\n      pop\n        /* \"--CODEGEN--\":1196:1198   */\n      0x20\n        /* \"--CODEGEN--\":1214:1267   */\n      tag_97\n        /* \"--CODEGEN--\":1259:1266   */\n      dup7\n        /* \"--CODEGEN--\":1250:1256   */\n      dup3\n        /* \"--CODEGEN--\":1239:1248   */\n      dup8\n        /* \"--CODEGEN--\":1235:1257   */\n      add\n        /* \"--CODEGEN--\":1214:1267   */\n      tag_79\n      jump\t// in\n    tag_97:\n        /* \"--CODEGEN--\":1204:1267   */\n      swap3\n      pop\n        /* \"--CODEGEN--\":1175:1273   */\n      pop\n        /* \"--CODEGEN--\":1304:1306   */\n      0x40\n        /* \"--CODEGEN--\":1322:1375   */\n      tag_98\n        /* \"--CODEGEN--\":1367:1374   */\n      dup7\n        /* \"--CODEGEN--\":1358:1364   */\n      dup3\n        /* \"--CODEGEN--\":1347:1356   */\n      dup8\n        /* \"--CODEGEN--\":1343:1365   */\n      add\n        /* \"--CODEGEN--\":1322:1375   */\n      tag_83\n      jump\t// in\n    tag_98:\n        /* \"--CODEGEN--\":1312:1375   */\n      swap2\n      pop\n        /* \"--CODEGEN--\":1283:1381   */\n      pop\n        /* \"--CODEGEN--\":1000:1391   */\n      swap3\n      pop\n      swap3\n      pop\n      swap3\n      jump\t// out\n        /* \"--CODEGEN--\":1398:1764   */\n    tag_26:\n      0x00\n      dup1\n        /* \"--CODEGEN--\":1519:1521   */\n      0x40\n        /* \"--CODEGEN--\":1507:1516   */\n      dup4\n        /* \"--CODEGEN--\":1498:1505   */\n      dup6\n        /* \"--CODEGEN--\":1494:1517   */\n      sub\n        /* \"--CODEGEN--\":1490:1522   */\n      slt\n        /* \"--CODEGEN--\":1487:1489   */\n      iszero\n      tag_100\n      jumpi\n        /* \"--CODEGEN--\":1535:1536   */\n      0x00\n        /* \"--CODEGEN--\":1532:1533   */\n      dup1\n        /* \"--CODEGEN--\":1525:1537   */\n      revert\n        /* \"--CODEGEN--\":1487:1489   */\n    tag_100:\n        /* \"--CODEGEN--\":1570:1571   */\n      0x00\n        /* \"--CODEGEN--\":1587:1640   */\n      tag_101\n        /* \"--CODEGEN--\":1632:1639   */\n      dup6\n        /* \"--CODEGEN--\":1623:1629   */\n      dup3\n        /* \"--CODEGEN--\":1612:1621   */\n      dup7\n        /* \"--CODEGEN--\":1608:1630   */\n      add\n        /* \"--CODEGEN--\":1587:1640   */\n      tag_79\n      jump\t// in\n    tag_101:\n        /* \"--CODEGEN--\":1577:1640   */\n      swap3\n      pop\n        /* \"--CODEGEN--\":1549:1646   */\n      pop\n        /* \"--CODEGEN--\":1677:1679   */\n      0x20\n        /* \"--CODEGEN--\":1695:1748   */\n      tag_102\n        /* \"--CODEGEN--\":1740:1747   */\n      dup6\n        /* \"--CODEGEN--\":1731:1737   */\n      dup3\n        /* \"--CODEGEN--\":1720:1729   */\n      dup7\n        /* \"--CODEGEN--\":1716:1738   */\n      add\n        /* \"--CODEGEN--\":1695:1748   */\n      tag_83\n      jump\t// in\n    tag_102:\n        /* \"--CODEGEN--\":1685:1748   */\n      swap2\n      pop\n        /* \"--CODEGEN--\":1656:1754   */\n      pop\n        /* \"--CODEGEN--\":1481:1764   */\n      swap3\n      pop\n      swap3\n      swap1\n      pop\n      jump\t// out\n        /* \"--CODEGEN--\":1771:2012   */\n    tag_35:\n      0x00\n        /* \"--CODEGEN--\":1875:1877   */\n      0x20\n        /* \"--CODEGEN--\":1863:1872   */\n      dup3\n        /* \"--CODEGEN--\":1854:1861   */\n      dup5\n        /* \"--CODEGEN--\":1850:1873   */\n      sub\n        /* \"--CODEGEN--\":1846:1878   */\n      slt\n        /* \"--CODEGEN--\":1843:1845   */\n      iszero\n      tag_104\n      jumpi\n        /* \"--CODEGEN--\":1891:1892   */\n      0x00\n        /* \"--CODEGEN--\":1888:1889   */\n      dup1\n        /* \"--CODEGEN--\":1881:1893   */\n      revert\n        /* \"--CODEGEN--\":1843:1845   */\n    tag_104:\n        /* \"--CODEGEN--\":1926:1927   */\n      0x00\n        /* \"--CODEGEN--\":1943:1996   */\n      tag_105\n        /* \"--CODEGEN--\":1988:1995   */\n      dup5\n        /* \"--CODEGEN--\":1979:1985   */\n      dup3\n        /* \"--CODEGEN--\":1968:1977   */\n      dup6\n        /* \"--CODEGEN--\":1964:1986   */\n      add\n        /* \"--CODEGEN--\":1943:1996   */\n      tag_83\n      jump\t// in\n    tag_105:\n        /* \"--CODEGEN--\":1933:1996   */\n      swap2\n      pop\n        /* \"--CODEGEN--\":1905:2002   */\n      pop\n        /* \"--CODEGEN--\":1837:2012   */\n      swap3\n      swap2\n      pop\n      pop\n      jump\t// out\n        /* \"--CODEGEN--\":2019:2123   */\n    tag_106:\n        /* \"--CODEGEN--\":2096:2117   */\n      tag_108\n        /* \"--CODEGEN--\":2111:2116   */\n      dup2\n        /* \"--CODEGEN--\":2096:2117   */\n      tag_109\n      jump\t// in\n    tag_108:\n        /* \"--CODEGEN--\":2091:2094   */\n      dup3\n        /* \"--CODEGEN--\":2084:2118   */\n      mstore\n        /* \"--CODEGEN--\":2078:2123   */\n      pop\n      pop\n      jump\t// out\n        /* \"--CODEGEN--\":2130:2477   */\n    tag_110:\n      0x00\n        /* \"--CODEGEN--\":2242:2281   */\n      tag_112\n        /* \"--CODEGEN--\":2275:2280   */\n      dup3\n        /* \"--CODEGEN--\":2242:2281   */\n      tag_113\n      jump\t// in\n    tag_112:\n        /* \"--CODEGEN--\":2293:2364   */\n      tag_114\n        /* \"--CODEGEN--\":2357:2363   */\n      dup2\n        /* \"--CODEGEN--\":2352:2355   */\n      dup6\n        /* \"--CODEGEN--\":2293:2364   */\n      tag_115\n      jump\t// in\n    tag_114:\n        /* \"--CODEGEN--\":2286:2364   */\n      swap4\n      pop\n        /* \"--CODEGEN--\":2369:2421   */\n      tag_116\n        /* \"--CODEGEN--\":2414:2420   */\n      dup2\n        /* \"--CODEGEN--\":2409:2412   */\n      dup6\n        /* \"--CODEGEN--\":2402:2406   */\n      0x20\n        /* \"--CODEGEN--\":2395:2400   */\n      dup7\n        /* \"--CODEGEN--\":2391:2407   */\n      add\n        /* \"--CODEGEN--\":2369:2421   */\n      tag_117\n      jump\t// in\n    tag_116:\n        /* \"--CODEGEN--\":2442:2471   */\n      tag_118\n        /* \"--CODEGEN--\":2464:2470   */\n      dup2\n        /* \"--CODEGEN--\":2442:2471   */\n      tag_119\n      jump\t// in\n    tag_118:\n        /* \"--CODEGEN--\":2437:2440   */\n      dup5\n        /* \"--CODEGEN--\":2433:2472   */\n      add\n        /* \"--CODEGEN--\":2426:2472   */\n      swap2\n      pop\n        /* \"--CODEGEN--\":2222:2477   */\n      pop\n      swap3\n      swap2\n      pop\n      pop\n      jump\t// out\n        /* \"--CODEGEN--\":2484:2597   */\n    tag_120:\n        /* \"--CODEGEN--\":2567:2591   */\n      tag_122\n        /* \"--CODEGEN--\":2585:2590   */\n      dup2\n        /* \"--CODEGEN--\":2567:2591   */\n      tag_123\n      jump\t// in\n    tag_122:\n        /* \"--CODEGEN--\":2562:2565   */\n      dup3\n        /* \"--CODEGEN--\":2555:2592   */\n      mstore\n        /* \"--CODEGEN--\":2549:2597   */\n      pop\n      pop\n      jump\t// out\n        /* \"--CODEGEN--\":2604:2711   */\n    tag_124:\n        /* \"--CODEGEN--\":2683:2705   */\n      tag_126\n        /* \"--CODEGEN--\":2699:2704   */\n      dup2\n        /* \"--CODEGEN--\":2683:2705   */\n      tag_127\n      jump\t// in\n    tag_126:\n        /* \"--CODEGEN--\":2678:2681   */\n      dup3\n        /* \"--CODEGEN--\":2671:2706   */\n      mstore\n        /* \"--CODEGEN--\":2665:2711   */\n      pop\n      pop\n      jump\t// out\n        /* \"--CODEGEN--\":2718:2928   */\n    tag_29:\n      0x00\n        /* \"--CODEGEN--\":2839:2841   */\n      0x20\n        /* \"--CODEGEN--\":2828:2837   */\n      dup3\n        /* \"--CODEGEN--\":2824:2842   */\n      add\n        /* \"--CODEGEN--\":2816:2842   */\n      swap1\n      pop\n        /* \"--CODEGEN--\":2853:2918   */\n      tag_129\n        /* \"--CODEGEN--\":2915:2916   */\n      0x00\n        /* \"--CODEGEN--\":2904:2913   */\n      dup4\n        /* \"--CODEGEN--\":2900:2917   */\n      add\n        /* \"--CODEGEN--\":2891:2897   */\n      dup5\n        /* \"--CODEGEN--\":2853:2918   */\n      tag_106\n      jump\t// in\n    tag_129:\n        /* \"--CODEGEN--\":2810:2928   */\n      swap3\n      swap2\n      pop\n      pop\n      jump\t// out\n        /* \"--CODEGEN--\":2935:3245   */\n    tag_17:\n      0x00\n        /* \"--CODEGEN--\":3082:3084   */\n      0x20\n        /* \"--CODEGEN--\":3071:3080   */\n      dup3\n        /* \"--CODEGEN--\":3067:3085   */\n      add\n        /* \"--CODEGEN--\":3059:3085   */\n      swap1\n      pop\n        /* \"--CODEGEN--\":3132:3141   */\n      dup2\n        /* \"--CODEGEN--\":3126:3130   */\n      dup2\n        /* \"--CODEGEN--\":3122:3142   */\n      sub\n        /* \"--CODEGEN--\":3118:3119   */\n      0x00\n        /* \"--CODEGEN--\":3107:3116   */\n      dup4\n        /* \"--CODEGEN--\":3103:3120   */\n      add\n        /* \"--CODEGEN--\":3096:3143   */\n      mstore\n        /* \"--CODEGEN--\":3157:3235   */\n      tag_131\n        /* \"--CODEGEN--\":3230:3234   */\n      dup2\n        /* \"--CODEGEN--\":3221:3227   */\n      dup5\n        /* \"--CODEGEN--\":3157:3235   */\n      tag_110\n      jump\t// in\n    tag_131:\n        /* \"--CODEGEN--\":3149:3235   */\n      swap1\n      pop\n        /* \"--CODEGEN--\":3053:3245   */\n      swap3\n      swap2\n      pop\n      pop\n      jump\t// out\n        /* \"--CODEGEN--\":3252:3474   */\n    tag_23:\n      0x00\n        /* \"--CODEGEN--\":3379:3381   */\n      0x20\n        /* \"--CODEGEN--\":3368:3377   */\n      dup3\n        /* \"--CODEGEN--\":3364:3382   */\n      add\n        /* \"--CODEGEN--\":3356:3382   */\n      swap1\n      pop\n        /* \"--CODEGEN--\":3393:3464   */\n      tag_133\n        /* \"--CODEGEN--\":3461:3462   */\n      0x00\n        /* \"--CODEGEN--\":3450:3459   */\n      dup4\n        /* \"--CODEGEN--\":3446:3463   */\n      add\n        /* \"--CODEGEN--\":3437:3443   */\n      dup5\n        /* \"--CODEGEN--\":3393:3464   */\n      tag_120\n      jump\t// in\n    tag_133:\n        /* \"--CODEGEN--\":3350:3474   */\n      swap3\n      swap2\n      pop\n      pop\n      jump\t// out\n        /* \"--CODEGEN--\":3481:3695   */\n    tag_45:\n      0x00\n        /* \"--CODEGEN--\":3604:3606   */\n      0x20\n        /* \"--CODEGEN--\":3593:3602   */\n      dup3\n        /* \"--CODEGEN--\":3589:3607   */\n      add\n        /* \"--CODEGEN--\":3581:3607   */\n      swap1\n      pop\n        /* \"--CODEGEN--\":3618:3685   */\n      tag_135\n        /* \"--CODEGEN--\":3682:3683   */\n      0x00\n        /* \"--CODEGEN--\":3671:3680   */\n      dup4\n        /* \"--CODEGEN--\":3667:3684   */\n      add\n        /* \"--CODEGEN--\":3658:3664   */\n      dup5\n        /* \"--CODEGEN--\":3618:3685   */\n      tag_124\n      jump\t// in\n    tag_135:\n        /* \"--CODEGEN--\":3575:3695   */\n      swap3\n      swap2\n      pop\n      pop\n      jump\t// out\n        /* \"--CODEGEN--\":3702:3824   */\n    tag_113:\n      0x00\n        /* \"--CODEGEN--\":3796:3801   */\n      dup2\n        /* \"--CODEGEN--\":3790:3802   */\n      mload\n        /* \"--CODEGEN--\":3780:3802   */\n      swap1\n      pop\n        /* \"--CODEGEN--\":3761:3824   */\n      swap2\n      swap1\n      pop\n      jump\t// out\n        /* \"--CODEGEN--\":3832:3995   */\n    tag_115:\n      0x00\n        /* \"--CODEGEN--\":3947:3953   */\n      dup3\n        /* \"--CODEGEN--\":3942:3945   */\n      dup3\n        /* \"--CODEGEN--\":3935:3954   */\n      mstore\n        /* \"--CODEGEN--\":3984:3988   */\n      0x20\n        /* \"--CODEGEN--\":3979:3982   */\n      dup3\n        /* \"--CODEGEN--\":3975:3989   */\n      add\n        /* \"--CODEGEN--\":3960:3989   */\n      swap1\n      pop\n        /* \"--CODEGEN--\":3928:3995   */\n      swap3\n      swap2\n      pop\n      pop\n      jump\t// out\n        /* \"--CODEGEN--\":4003:4094   */\n    tag_138:\n      0x00\n        /* \"--CODEGEN--\":4065:4089   */\n      tag_140\n        /* \"--CODEGEN--\":4083:4088   */\n      dup3\n        /* \"--CODEGEN--\":4065:4089   */\n      tag_141\n      jump\t// in\n    tag_140:\n        /* \"--CODEGEN--\":4054:4089   */\n      swap1\n      pop\n        /* \"--CODEGEN--\":4048:4094   */\n      swap2\n      swap1\n      pop\n      jump\t// out\n        /* \"--CODEGEN--\":4101:4186   */\n    tag_109:\n      0x00\n        /* \"--CODEGEN--\":4174:4179   */\n      dup2\n        /* \"--CODEGEN--\":4167:4180   */\n      iszero\n        /* \"--CODEGEN--\":4160:4181   */\n      iszero\n        /* \"--CODEGEN--\":4149:4181   */\n      swap1\n      pop\n        /* \"--CODEGEN--\":4143:4186   */\n      swap2\n      swap1\n      pop\n      jump\t// out\n        /* \"--CODEGEN--\":4193:4314   */\n    tag_141:\n      0x00\n        /* \"--CODEGEN--\":4266:4308   */\n      0xffffffffffffffffffffffffffffffffffffffff\n        /* \"--CODEGEN--\":4259:4264   */\n      dup3\n        /* \"--CODEGEN--\":4255:4309   */\n      and\n        /* \"--CODEGEN--\":4244:4309   */\n      swap1\n      pop\n        /* \"--CODEGEN--\":4238:4314   */\n      swap2\n      swap1\n      pop\n      jump\t// out\n        /* \"--CODEGEN--\":4321:4393   */\n    tag_123:\n      0x00\n        /* \"--CODEGEN--\":4383:4388   */\n      dup2\n        /* \"--CODEGEN--\":4372:4388   */\n      swap1\n      pop\n        /* \"--CODEGEN--\":4366:4393   */\n      swap2\n      swap1\n      pop\n      jump\t// out\n        /* \"--CODEGEN--\":4400:4481   */\n    tag_127:\n      0x00\n        /* \"--CODEGEN--\":4471:4475   */\n      0xff\n        /* \"--CODEGEN--\":4464:4469   */\n      dup3\n        /* \"--CODEGEN--\":4460:4476   */\n      and\n        /* \"--CODEGEN--\":4449:4476   */\n      swap1\n      pop\n        /* \"--CODEGEN--\":4443:4481   */\n      swap2\n      swap1\n      pop\n      jump\t// out\n        /* \"--CODEGEN--\":4489:4757   */\n    tag_117:\n        /* \"--CODEGEN--\":4554:4555   */\n      0x00\n        /* \"--CODEGEN--\":4561:4662   */\n    tag_147:\n        /* \"--CODEGEN--\":4575:4581   */\n      dup4\n        /* \"--CODEGEN--\":4572:4573   */\n      dup2\n        /* \"--CODEGEN--\":4569:4582   */\n      lt\n        /* \"--CODEGEN--\":4561:4662   */\n      iszero\n      tag_149\n      jumpi\n        /* \"--CODEGEN--\":4651:4652   */\n      dup1\n        /* \"--CODEGEN--\":4646:4649   */\n      dup3\n        /* \"--CODEGEN--\":4642:4653   */\n      add\n        /* \"--CODEGEN--\":4636:4654   */\n      mload\n        /* \"--CODEGEN--\":4632:4633   */\n      dup2\n        /* \"--CODEGEN--\":4627:4630   */\n      dup5\n        /* \"--CODEGEN--\":4623:4634   */\n      add\n        /* \"--CODEGEN--\":4616:4655   */\n      mstore\n        /* \"--CODEGEN--\":4597:4599   */\n      0x20\n        /* \"--CODEGEN--\":4594:4595   */\n      dup2\n        /* \"--CODEGEN--\":4590:4600   */\n      add\n        /* \"--CODEGEN--\":4585:4600   */\n      swap1\n      pop\n        /* \"--CODEGEN--\":4561:4662   */\n      jump(tag_147)\n    tag_149:\n        /* \"--CODEGEN--\":4677:4683   */\n      dup4\n        /* \"--CODEGEN--\":4674:4675   */\n      dup2\n        /* \"--CODEGEN--\":4671:4684   */\n      gt\n        /* \"--CODEGEN--\":4668:4670   */\n      iszero\n      tag_150\n      jumpi\n        /* \"--CODEGEN--\":4742:4743   */\n      0x00\n        /* \"--CODEGEN--\":4733:4739   */\n      dup5\n        /* \"--CODEGEN--\":4728:4731   */\n      dup5\n        /* \"--CODEGEN--\":4724:4740   */\n      add\n        /* \"--CODEGEN--\":4717:4744   */\n      mstore\n        /* \"--CODEGEN--\":4668:4670   */\n    tag_150:\n        /* \"--CODEGEN--\":4538:4757   */\n      pop\n      pop\n      pop\n      pop\n      jump\t// out\n        /* \"--CODEGEN--\":4765:4862   */\n    tag_119:\n      0x00\n        /* \"--CODEGEN--\":4853:4855   */\n      0x1f\n        /* \"--CODEGEN--\":4849:4856   */\n      not\n        /* \"--CODEGEN--\":4844:4846   */\n      0x1f\n        /* \"--CODEGEN--\":4837:4842   */\n      dup4\n        /* \"--CODEGEN--\":4833:4847   */\n      add\n        /* \"--CODEGEN--\":4829:4857   */\n      and\n        /* \"--CODEGEN--\":4819:4857   */\n      swap1\n      pop\n        /* \"--CODEGEN--\":4813:4862   */\n      swap2\n      swap1\n      pop\n      jump\t// out\n        /* \"--CODEGEN--\":4870:4987   */\n    tag_82:\n        /* \"--CODEGEN--\":4939:4963   */\n      tag_153\n        /* \"--CODEGEN--\":4957:4962   */\n      dup2\n        /* \"--CODEGEN--\":4939:4963   */\n      tag_138\n      jump\t// in\n    tag_153:\n        /* \"--CODEGEN--\":4932:4937   */\n      dup2\n        /* \"--CODEGEN--\":4929:4964   */\n      eq\n        /* \"--CODEGEN--\":4919:4921   */\n      tag_154\n      jumpi\n        /* \"--CODEGEN--\":4978:4979   */\n      0x00\n        /* \"--CODEGEN--\":4975:4976   */\n      dup1\n        /* \"--CODEGEN--\":4968:4980   */\n      revert\n        /* \"--CODEGEN--\":4919:4921   */\n    tag_154:\n        /* \"--CODEGEN--\":4913:4987   */\n      pop\n      jump\t// out\n        /* \"--CODEGEN--\":4994:5111   */\n    tag_86:\n        /* \"--CODEGEN--\":5063:5087   */\n      tag_156\n        /* \"--CODEGEN--\":5081:5086   */\n      dup2\n        /* \"--CODEGEN--\":5063:5087   */\n      tag_123\n      jump\t// in\n    tag_156:\n        /* \"--CODEGEN--\":5056:5061   */\n      dup2\n        /* \"--CODEGEN--\":5053:5088   */\n      eq\n        /* \"--CODEGEN--\":5043:5045   */\n      tag_157\n      jumpi\n        /* \"--CODEGEN--\":5102:5103   */\n      0x00\n        /* \"--CODEGEN--\":5099:5100   */\n      dup1\n        /* \"--CODEGEN--\":5092:5104   */\n      revert\n        /* \"--CODEGEN--\":5043:5045   */\n    tag_157:\n        /* \"--CODEGEN--\":5037:5111   */\n      pop\n      jump\t// out\n\n    auxdata: 0xa26469706673582212200e83411ad6183f16b659d8d473129b7e8e1e872271bae10d3bffac5d270c5f1564736f6c634300060c0033\n}\n",
				"bytecode": {
					"linkReferences": {},
					"object": "608060405234801561001057600080fd5b50604051610be5380380610be583398181016040528101906100329190610099565b806002819055506002546000803373ffffffffffffffffffffffffffffffffffffffff1673ffffffffffffffffffffffffffffffffffffffff16815260200190815260200160002081905550506100e3565b600081519050610093816100cc565b92915050565b6000602082840312156100ab57600080fd5b60006100b984828501610084565b91505092915050565b6000819050919050565b6100d5816100c2565b81146100e057600080fd5b50565b610af3806100f26000396000f3fe608060405234801561001057600080fd5b506004361061009e5760003560e01c806323b872dd1161006657806323b872dd1461015b578063313ce5671461018b57806370a08231146101a957806395d89b41146101d9578063a9059cbb146101f75761009e565b806306fdde03146100a3578063092c8d35146100c1578063095ea7b3146100f157806318160ddd146101215780631d43cc981461013f575b600080fd5b6100ab610227565b6040516100b89190610982565b60405180910390f35b6100db60048036038101906100d69190610811565b610260565b6040516100e891906109a4565b60405180910390f35b61010b6004803603810190610106919061089c565b6102e7565b6040516101189190610967565b60405180910390f35b6101296103d9565b60405161013691906109a4565b60405180910390f35b610159600480360381019061015491906108d8565b6103e3565b005b6101756004803603810190610170919061084d565b610442565b6040516101829190610967565b60405180910390f35b610193610523565b6040516101a091906109bf565b60405180910390f35b6101c360048036038101906101be91906107e8565b610528565b6040516101d091906109a4565b60405180910390f35b6101e1610570565b6040516101ee9190610982565b60405180910390f35b610211600480360381019061020c919061089c565b6105a9565b60405161021e9190610967565b60405180910390f35b6040518060400160405280600981526020017f455243424c4f434b31000000000000000000000000000000000000000000000081525081565b6000600160008473ffffffffffffffffffffffffffffffffffffffff1673ffffffffffffffffffffffffffffffffffffffff16815260200190815260200160002060008373ffffffffffffffffffffffffffffffffffffffff1673ffffffffffffffffffffffffffffffffffffffff16815260200190815260200160002054905092915050565b600081600160003373ffffffffffffffffffffffffffffffffffffffff1673ffffffffffffffffffffffffffffffffffffffff16815260200190815260200160002060008573ffffffffffffffffffffffffffffffffffffffff1673ffffffffffffffffffffffffffffffffffffffff168152602001908152602001600020819055508273ffffffffffffffffffffffffffffffffffffffff163373ffffffffffffffffffffffffffffffffffffffff167fddf252ad1be2c89b69c2b068fc378daa952ba7f163c4a11628f55a4df523b3ef846040516103c791906109a4565b60405180910390a36001905092915050565b6000600254905090565b80600260008282540192505081905550806000803373ffffffffffffffffffffffffffffffffffffffff1673ffffffffffffffffffffffffffffffffffffffff1681526020019081526020016000206000828254019250508190555050565b60008060008573ffffffffffffffffffffffffffffffffffffffff1673ffffffffffffffffffffffffffffffffffffffff1681526020019081526020016000205482111561048f57600080fd5b600160008573ffffffffffffffffffffffffffffffffffffffff1673ffffffffffffffffffffffffffffffffffffffff16815260200190815260200160002060003373ffffffffffffffffffffffffffffffffffffffff1673ffffffffffffffffffffffffffffffffffffffff1681526020019081526020016000205482111561051857600080fd5b600090509392505050565b601281565b60008060008373ffffffffffffffffffffffffffffffffffffffff1673ffffffffffffffffffffffffffffffffffffffff168152602001908152602001600020549050919050565b6040518060400160405280600381526020017f455243000000000000000000000000000000000000000000000000000000000081525081565b60008060003373ffffffffffffffffffffffffffffffffffffffff1673ffffffffffffffffffffffffffffffffffffffff168152602001908152602001600020548211156105f657600080fd5b610647826000803373ffffffffffffffffffffffffffffffffffffffff1673ffffffffffffffffffffffffffffffffffffffff1681526020019081526020016000205461078b90919063ffffffff16565b6000803373ffffffffffffffffffffffffffffffffffffffff1673ffffffffffffffffffffffffffffffffffffffff168152602001908152602001600020819055506106da826000808673ffffffffffffffffffffffffffffffffffffffff1673ffffffffffffffffffffffffffffffffffffffff168152602001908152602001600020546107a290919063ffffffff16565b6000808573ffffffffffffffffffffffffffffffffffffffff1673ffffffffffffffffffffffffffffffffffffffff168152602001908152602001600020819055508273ffffffffffffffffffffffffffffffffffffffff163373ffffffffffffffffffffffffffffffffffffffff167fddf252ad1be2c89b69c2b068fc378daa952ba7f163c4a11628f55a4df523b3ef8460405161077991906109a4565b60405180910390a36001905092915050565b60008282111561079757fe5b818303905092915050565b6000808284019050838110156107b457fe5b8091505092915050565b6000813590506107cd81610a8f565b92915050565b6000813590506107e281610aa6565b92915050565b6000602082840312156107fa57600080fd5b6000610808848285016107be565b91505092915050565b6000806040838503121561082457600080fd5b6000610832858286016107be565b9250506020610843858286016107be565b9150509250929050565b60008060006060848603121561086257600080fd5b6000610870868287016107be565b9350506020610881868287016107be565b9250506040610892868287016107d3565b9150509250925092565b600080604083850312156108af57600080fd5b60006108bd858286016107be565b92505060206108ce858286016107d3565b9150509250929050565b6000602082840312156108ea57600080fd5b60006108f8848285016107d3565b91505092915050565b61090a81610a08565b82525050565b600061091b826109da565b61092581856109e5565b9350610935818560208601610a4b565b61093e81610a7e565b840191505092915050565b61095281610a34565b82525050565b61096181610a3e565b82525050565b600060208201905061097c6000830184610901565b92915050565b6000602082019050818103600083015261099c8184610910565b905092915050565b60006020820190506109b96000830184610949565b92915050565b60006020820190506109d46000830184610958565b92915050565b600081519050919050565b600082825260208201905092915050565b6000610a0182610a14565b9050919050565b60008115159050919050565b600073ffffffffffffffffffffffffffffffffffffffff82169050919050565b6000819050919050565b600060ff82169050919050565b60005b83811015610a69578082015181840152602081019050610a4e565b83811115610a78576000848401525b50505050565b6000601f19601f8301169050919050565b610a98816109f6565b8114610aa357600080fd5b50565b610aaf81610a34565b8114610aba57600080fd5b5056fea26469706673582212200e83411ad6183f16b659d8d473129b7e8e1e872271bae10d3bffac5d270c5f1564736f6c634300060c0033",
					"opcodes": "PUSH1 0x80 PUSH1 0x40 MSTORE CALLVALUE DUP1 ISZERO PUSH2 0x10 JUMPI PUSH1 0x0 DUP1 REVERT JUMPDEST POP PUSH1 0x40 MLOAD PUSH2 0xBE5 CODESIZE SUB DUP1 PUSH2 0xBE5 DUP4 CODECOPY DUP2 DUP2 ADD PUSH1 0x40 MSTORE DUP2 ADD SWAP1 PUSH2 0x32 SWAP2 SWAP1 PUSH2 0x99 JUMP JUMPDEST DUP1 PUSH1 0x2 DUP2 SWAP1 SSTORE POP PUSH1 0x2 SLOAD PUSH1 0x0 DUP1 CALLER PUSH20 0xFFFFFFFFFFFFFFFFFFFFFFFFFFFFFFFFFFFFFFFF AND PUSH20 0xFFFFFFFFFFFFFFFFFFFFFFFFFFFFFFFFFFFFFFFF AND DUP2 MSTORE PUSH1 0x20 ADD SWAP1 DUP2 MSTORE PUSH1 0x20 ADD PUSH1 0x0 KECCAK256 DUP2 SWAP1 SSTORE POP POP PUSH2 0xE3 JUMP JUMPDEST PUSH1 0x0 DUP2 MLOAD SWAP1 POP PUSH2 0x93 DUP2 PUSH2 0xCC JUMP JUMPDEST SWAP3 SWAP2 POP POP JUMP JUMPDEST PUSH1 0x0 PUSH1 0x20 DUP3 DUP5 SUB SLT ISZERO PUSH2 0xAB JUMPI PUSH1 0x0 DUP1 REVERT JUMPDEST PUSH1 0x0 PUSH2 0xB9 DUP5 DUP3 DUP6 ADD PUSH2 0x84 JUMP JUMPDEST SWAP2 POP POP SWAP3 SWAP2 POP POP JUMP JUMPDEST PUSH1 0x0 DUP2 SWAP1 POP SWAP2 SWAP1 POP JUMP JUMPDEST PUSH2 0xD5 DUP2 PUSH2 0xC2 JUMP JUMPDEST DUP2 EQ PUSH2 0xE0 JUMPI PUSH1 0x0 DUP1 REVERT JUMPDEST POP JUMP JUMPDEST PUSH2 0xAF3 DUP1 PUSH2 0xF2 PUSH1 0x0 CODECOPY PUSH1 0x0 RETURN INVALID PUSH1 0x80 PUSH1 0x40 MSTORE CALLVALUE DUP1 ISZERO PUSH2 0x10 JUMPI PUSH1 0x0 DUP1 REVERT JUMPDEST POP PUSH1 0x4 CALLDATASIZE LT PUSH2 0x9E JUMPI PUSH1 0x0 CALLDATALOAD PUSH1 0xE0 SHR DUP1 PUSH4 0x23B872DD GT PUSH2 0x66 JUMPI DUP1 PUSH4 0x23B872DD EQ PUSH2 0x15B JUMPI DUP1 PUSH4 0x313CE567 EQ PUSH2 0x18B JUMPI DUP1 PUSH4 0x70A08231 EQ PUSH2 0x1A9 JUMPI DUP1 PUSH4 0x95D89B41 EQ PUSH2 0x1D9 JUMPI DUP1 PUSH4 0xA9059CBB EQ PUSH2 0x1F7 JUMPI PUSH2 0x9E JUMP JUMPDEST DUP1 PUSH4 0x6FDDE03 EQ PUSH2 0xA3 JUMPI DUP1 PUSH4 0x92C8D35 EQ PUSH2 0xC1 JUMPI DUP1 PUSH4 0x95EA7B3 EQ PUSH2 0xF1 JUMPI DUP1 PUSH4 0x18160DDD EQ PUSH2 0x121 JUMPI DUP1 PUSH4 0x1D43CC98 EQ PUSH2 0x13F JUMPI JUMPDEST PUSH1 0x0 DUP1 REVERT JUMPDEST PUSH2 0xAB PUSH2 0x227 JUMP JUMPDEST PUSH1 0x40 MLOAD PUSH2 0xB8 SWAP2 SWAP1 PUSH2 0x982 JUMP JUMPDEST PUSH1 0x40 MLOAD DUP1 SWAP2 SUB SWAP1 RETURN JUMPDEST PUSH2 0xDB PUSH1 0x4 DUP1 CALLDATASIZE SUB DUP2 ADD SWAP1 PUSH2 0xD6 SWAP2 SWAP1 PUSH2 0x811 JUMP JUMPDEST PUSH2 0x260 JUMP JUMPDEST PUSH1 0x40 MLOAD PUSH2 0xE8 SWAP2 SWAP1 PUSH2 0x9A4 JUMP JUMPDEST PUSH1 0x40 MLOAD DUP1 SWAP2 SUB SWAP1 RETURN JUMPDEST PUSH2 0x10B PUSH1 0x4 DUP1 CALLDATASIZE SUB DUP2 ADD SWAP1 PUSH2 0x106 SWAP2 SWAP1 PUSH2 0x89C JUMP JUMPDEST PUSH2 0x2E7 JUMP JUMPDEST PUSH1 0x40 MLOAD PUSH2 0x118 SWAP2 SWAP1 PUSH2 0x967 JUMP JUMPDEST PUSH1 0x40 MLOAD DUP1 SWAP2 SUB SWAP1 RETURN JUMPDEST PUSH2 0x129 PUSH2 0x3D9 JUMP JUMPDEST PUSH1 0x40 MLOAD PUSH2 0x136 SWAP2 SWAP1 PUSH2 0x9A4 JUMP JUMPDEST PUSH1 0x40 MLOAD DUP1 SWAP2 SUB SWAP1 RETURN JUMPDEST PUSH2 0x159 PUSH1 0x4 DUP1 CALLDATASIZE SUB DUP2 ADD SWAP1 PUSH2 0x154 SWAP2 SWAP1 PUSH2 0x8D8 JUMP JUMPDEST PUSH2 0x3E3 JUMP JUMPDEST STOP JUMPDEST PUSH2 0x175 PUSH1 0x4 DUP1 CALLDATASIZE SUB DUP2 ADD SWAP1 PUSH2 0x170 SWAP2 SWAP1 PUSH2 0x84D JUMP JUMPDEST PUSH2 0x442 JUMP JUMPDEST PUSH1 0x40 MLOAD PUSH2 0x182 SWAP2 SWAP1 PUSH2 0x967 JUMP JUMPDEST PUSH1 0x40 MLOAD DUP1 SWAP2 SUB SWAP1 RETURN JUMPDEST PUSH2 0x193 PUSH2 0x523 JUMP JUMPDEST PUSH1 0x40 MLOAD PUSH2 0x1A0 SWAP2 SWAP1 PUSH2 0x9BF JUMP JUMPDEST PUSH1 0x40 MLOAD DUP1 SWAP2 SUB SWAP1 RETURN JUMPDEST PUSH2 0x1C3 PUSH1 0x4 DUP1 CALLDATASIZE SUB DUP2 ADD SWAP1 PUSH2 0x1BE SWAP2 SWAP1 PUSH2 0x7E8 JUMP JUMPDEST PUSH2 0x528 JUMP JUMPDEST PUSH1 0x40 MLOAD PUSH2 0x1D0 SWAP2 SWAP1 PUSH2 0x9A4 JUMP JUMPDEST PUSH1 0x40 MLOAD DUP1 SWAP2 SUB SWAP1 RETURN JUMPDEST PUSH2 0x1E1 PUSH2 0x570 JUMP JUMPDEST PUSH1 0x40 MLOAD PUSH2 0x1EE SWAP2 SWAP1 PUSH2 0x982 JUMP JUMPDEST PUSH1 0x40 MLOAD DUP1 SWAP2 SUB SWAP1 RETURN JUMPDEST PUSH2 0x211 PUSH1 0x4 DUP1 CALLDATASIZE SUB DUP2 ADD SWAP1 PUSH2 0x20C SWAP2 SWAP1 PUSH2 0x89C JUMP JUMPDEST PUSH2 0x5A9 JUMP JUMPDEST PUSH1 0x40 MLOAD PUSH2 0x21E SWAP2 SWAP1 PUSH2 0x967 JUMP JUMPDEST PUSH1 0x40 MLOAD DUP1 SWAP2 SUB SWAP1 RETURN JUMPDEST PUSH1 0x40 MLOAD DUP1 PUSH1 0x40 ADD PUSH1 0x40 MSTORE DUP1 PUSH1 0x9 DUP2 MSTORE PUSH1 0x20 ADD PUSH32 0x455243424C4F434B310000000000000000000000000000000000000000000000 DUP2 MSTORE POP DUP2 JUMP JUMPDEST PUSH1 0x0 PUSH1 0x1 PUSH1 0x0 DUP5 PUSH20 0xFFFFFFFFFFFFFFFFFFFFFFFFFFFFFFFFFFFFFFFF AND PUSH20 0xFFFFFFFFFFFFFFFFFFFFFFFFFFFFFFFFFFFFFFFF AND DUP2 MSTORE PUSH1 0x20 ADD SWAP1 DUP2 MSTORE PUSH1 0x20 ADD PUSH1 0x0 KECCAK256 PUSH1 0x0 DUP4 PUSH20 0xFFFFFFFFFFFFFFFFFFFFFFFFFFFFFFFFFFFFFFFF AND PUSH20 0xFFFFFFFFFFFFFFFFFFFFFFFFFFFFFFFFFFFFFFFF AND DUP2 MSTORE PUSH1 0x20 ADD SWAP1 DUP2 MSTORE PUSH1 0x20 ADD PUSH1 0x0 KECCAK256 SLOAD SWAP1 POP SWAP3 SWAP2 POP POP JUMP JUMPDEST PUSH1 0x0 DUP2 PUSH1 0x1 PUSH1 0x0 CALLER PUSH20 0xFFFFFFFFFFFFFFFFFFFFFFFFFFFFFFFFFFFFFFFF AND PUSH20 0xFFFFFFFFFFFFFFFFFFFFFFFFFFFFFFFFFFFFFFFF AND DUP2 MSTORE PUSH1 0x20 ADD SWAP1 DUP2 MSTORE PUSH1 0x20 ADD PUSH1 0x0 KECCAK256 PUSH1 0x0 DUP6 PUSH20 0xFFFFFFFFFFFFFFFFFFFFFFFFFFFFFFFFFFFFFFFF AND PUSH20 0xFFFFFFFFFFFFFFFFFFFFFFFFFFFFFFFFFFFFFFFF AND DUP2 MSTORE PUSH1 0x20 ADD SWAP1 DUP2 MSTORE PUSH1 0x20 ADD PUSH1 0x0 KECCAK256 DUP2 SWAP1 SSTORE POP DUP3 PUSH20 0xFFFFFFFFFFFFFFFFFFFFFFFFFFFFFFFFFFFFFFFF AND CALLER PUSH20 0xFFFFFFFFFFFFFFFFFFFFFFFFFFFFFFFFFFFFFFFF AND PUSH32 0xDDF252AD1BE2C89B69C2B068FC378DAA952BA7F163C4A11628F55A4DF523B3EF DUP5 PUSH1 0x40 MLOAD PUSH2 0x3C7 SWAP2 SWAP1 PUSH2 0x9A4 JUMP JUMPDEST PUSH1 0x40 MLOAD DUP1 SWAP2 SUB SWAP1 LOG3 PUSH1 0x1 SWAP1 POP SWAP3 SWAP2 POP POP JUMP JUMPDEST PUSH1 0x0 PUSH1 0x2 SLOAD SWAP1 POP SWAP1 JUMP JUMPDEST DUP1 PUSH1 0x2 PUSH1 0x0 DUP3 DUP3 SLOAD ADD SWAP3 POP POP DUP2 SWAP1 SSTORE POP DUP1 PUSH1 0x0 DUP1 CALLER PUSH20 0xFFFFFFFFFFFFFFFFFFFFFFFFFFFFFFFFFFFFFFFF AND PUSH20 0xFFFFFFFFFFFFFFFFFFFFFFFFFFFFFFFFFFFFFFFF AND DUP2 MSTORE PUSH1 0x20 ADD SWAP1 DUP2 MSTORE PUSH1 0x20 ADD PUSH1 0x0 KECCAK256 PUSH1 0x0 DUP3 DUP3 SLOAD ADD SWAP3 POP POP DUP2 SWAP1 SSTORE POP POP JUMP JUMPDEST PUSH1 0x0 DUP1 PUSH1 0x0 DUP6 PUSH20 0xFFFFFFFFFFFFFFFFFFFFFFFFFFFFFFFFFFFFFFFF AND PUSH20 0xFFFFFFFFFFFFFFFFFFFFFFFFFFFFFFFFFFFFFFFF AND DUP2 MSTORE PUSH1 0x20 ADD SWAP1 DUP2 MSTORE PUSH1 0x20 ADD PUSH1 0x0 KECCAK256 SLOAD DUP3 GT ISZERO PUSH2 0x48F JUMPI PUSH1 0x0 DUP1 REVERT JUMPDEST PUSH1 0x1 PUSH1 0x0 DUP6 PUSH20 0xFFFFFFFFFFFFFFFFFFFFFFFFFFFFFFFFFFFFFFFF AND PUSH20 0xFFFFFFFFFFFFFFFFFFFFFFFFFFFFFFFFFFFFFFFF AND DUP2 MSTORE PUSH1 0x20 ADD SWAP1 DUP2 MSTORE PUSH1 0x20 ADD PUSH1 0x0 KECCAK256 PUSH1 0x0 CALLER PUSH20 0xFFFFFFFFFFFFFFFFFFFFFFFFFFFFFFFFFFFFFFFF AND PUSH20 0xFFFFFFFFFFFFFFFFFFFFFFFFFFFFFFFFFFFFFFFF AND DUP2 MSTORE PUSH1 0x20 ADD SWAP1 DUP2 MSTORE PUSH1 0x20 ADD PUSH1 0x0 KECCAK256 SLOAD DUP3 GT ISZERO PUSH2 0x518 JUMPI PUSH1 0x0 DUP1 REVERT JUMPDEST PUSH1 0x0 SWAP1 POP SWAP4 SWAP3 POP POP POP JUMP JUMPDEST PUSH1 0x12 DUP2 JUMP JUMPDEST PUSH1 0x0 DUP1 PUSH1 0x0 DUP4 PUSH20 0xFFFFFFFFFFFFFFFFFFFFFFFFFFFFFFFFFFFFFFFF AND PUSH20 0xFFFFFFFFFFFFFFFFFFFFFFFFFFFFFFFFFFFFFFFF AND DUP2 MSTORE PUSH1 0x20 ADD SWAP1 DUP2 MSTORE PUSH1 0x20 ADD PUSH1 0x0 KECCAK256 SLOAD SWAP1 POP SWAP2 SWAP1 POP JUMP JUMPDEST PUSH1 0x40 MLOAD DUP1 PUSH1 0x40 ADD PUSH1 0x40 MSTORE DUP1 PUSH1 0x3 DUP2 MSTORE PUSH1 0x20 ADD PUSH32 0x4552430000000000000000000000000000000000000000000000000000000000 DUP2 MSTORE POP DUP2 JUMP JUMPDEST PUSH1 0x0 DUP1 PUSH1 0x0 CALLER PUSH20 0xFFFFFFFFFFFFFFFFFFFFFFFFFFFFFFFFFFFFFFFF AND PUSH20 0xFFFFFFFFFFFFFFFFFFFFFFFFFFFFFFFFFFFFFFFF AND DUP2 MSTORE PUSH1 0x20 ADD SWAP1 DUP2 MSTORE PUSH1 0x20 ADD PUSH1 0x0 KECCAK256 SLOAD DUP3 GT ISZERO PUSH2 0x5F6 JUMPI PUSH1 0x0 DUP1 REVERT JUMPDEST PUSH2 0x647 DUP3 PUSH1 0x0 DUP1 CALLER PUSH20 0xFFFFFFFFFFFFFFFFFFFFFFFFFFFFFFFFFFFFFFFF AND PUSH20 0xFFFFFFFFFFFFFFFFFFFFFFFFFFFFFFFFFFFFFFFF AND DUP2 MSTORE PUSH1 0x20 ADD SWAP1 DUP2 MSTORE PUSH1 0x20 ADD PUSH1 0x0 KECCAK256 SLOAD PUSH2 0x78B SWAP1 SWAP2 SWAP1 PUSH4 0xFFFFFFFF AND JUMP JUMPDEST PUSH1 0x0 DUP1 CALLER PUSH20 0xFFFFFFFFFFFFFFFFFFFFFFFFFFFFFFFFFFFFFFFF AND PUSH20 0xFFFFFFFFFFFFFFFFFFFFFFFFFFFFFFFFFFFFFFFF AND DUP2 MSTORE PUSH1 0x20 ADD SWAP1 DUP2 MSTORE PUSH1 0x20 ADD PUSH1 0x0 KECCAK256 DUP2 SWAP1 SSTORE POP PUSH2 0x6DA DUP3 PUSH1 0x0 DUP1 DUP7 PUSH20 0xFFFFFFFFFFFFFFFFFFFFFFFFFFFFFFFFFFFFFFFF AND PUSH20 0xFFFFFFFFFFFFFFFFFFFFFFFFFFFFFFFFFFFFFFFF AND DUP2 MSTORE PUSH1 0x20 ADD SWAP1 DUP2 MSTORE PUSH1 0x20 ADD PUSH1 0x0 KECCAK256 SLOAD PUSH2 0x7A2 SWAP1 SWAP2 SWAP1 PUSH4 0xFFFFFFFF AND JUMP JUMPDEST PUSH1 0x0 DUP1 DUP6 PUSH20 0xFFFFFFFFFFFFFFFFFFFFFFFFFFFFFFFFFFFFFFFF AND PUSH20 0xFFFFFFFFFFFFFFFFFFFFFFFFFFFFFFFFFFFFFFFF AND DUP2 MSTORE PUSH1 0x20 ADD SWAP1 DUP2 MSTORE PUSH1 0x20 ADD PUSH1 0x0 KECCAK256 DUP2 SWAP1 SSTORE POP DUP3 PUSH20 0xFFFFFFFFFFFFFFFFFFFFFFFFFFFFFFFFFFFFFFFF AND CALLER PUSH20 0xFFFFFFFFFFFFFFFFFFFFFFFFFFFFFFFFFFFFFFFF AND PUSH32 0xDDF252AD1BE2C89B69C2B068FC378DAA952BA7F163C4A11628F55A4DF523B3EF DUP5 PUSH1 0x40 MLOAD PUSH2 0x779 SWAP2 SWAP1 PUSH2 0x9A4 JUMP JUMPDEST PUSH1 0x40 MLOAD DUP1 SWAP2 SUB SWAP1 LOG3 PUSH1 0x1 SWAP1 POP SWAP3 SWAP2 POP POP JUMP JUMPDEST PUSH1 0x0 DUP3 DUP3 GT ISZERO PUSH2 0x797 JUMPI INVALID JUMPDEST DUP2 DUP4 SUB SWAP1 POP SWAP3 SWAP2 POP POP JUMP JUMPDEST PUSH1 0x0 DUP1 DUP3 DUP5 ADD SWAP1 POP DUP4 DUP2 LT ISZERO PUSH2 0x7B4 JUMPI INVALID JUMPDEST DUP1 SWAP2 POP POP SWAP3 SWAP2 POP POP JUMP JUMPDEST PUSH1 0x0 DUP2 CALLDATALOAD SWAP1 POP PUSH2 0x7CD DUP2 PUSH2 0xA8F JUMP JUMPDEST SWAP3 SWAP2 POP POP JUMP JUMPDEST PUSH1 0x0 DUP2 CALLDATALOAD SWAP1 POP PUSH2 0x7E2 DUP2 PUSH2 0xAA6 JUMP JUMPDEST SWAP3 SWAP2 POP POP JUMP JUMPDEST PUSH1 0x0 PUSH1 0x20 DUP3 DUP5 SUB SLT ISZERO PUSH2 0x7FA JUMPI PUSH1 0x0 DUP1 REVERT JUMPDEST PUSH1 0x0 PUSH2 0x808 DUP5 DUP3 DUP6 ADD PUSH2 0x7BE JUMP JUMPDEST SWAP2 POP POP SWAP3 SWAP2 POP POP JUMP JUMPDEST PUSH1 0x0 DUP1 PUSH1 0x40 DUP4 DUP6 SUB SLT ISZERO PUSH2 0x824 JUMPI PUSH1 0x0 DUP1 REVERT JUMPDEST PUSH1 0x0 PUSH2 0x832 DUP6 DUP3 DUP7 ADD PUSH2 0x7BE JUMP JUMPDEST SWAP3 POP POP PUSH1 0x20 PUSH2 0x843 DUP6 DUP3 DUP7 ADD PUSH2 0x7BE JUMP JUMPDEST SWAP2 POP POP SWAP3 POP SWAP3 SWAP1 POP JUMP JUMPDEST PUSH1 0x0 DUP1 PUSH1 0x0 PUSH1 0x60 DUP5 DUP7 SUB SLT ISZERO PUSH2 0x862 JUMPI PUSH1 0x0 DUP1 REVERT JUMPDEST PUSH1 0x0 PUSH2 0x870 DUP7 DUP3 DUP8 ADD PUSH2 0x7BE JUMP JUMPDEST SWAP4 POP POP PUSH1 0x20 PUSH2 0x881 DUP7 DUP3 DUP8 ADD PUSH2 0x7BE JUMP JUMPDEST SWAP3 POP POP PUSH1 0x40 PUSH2 0x892 DUP7 DUP3 DUP8 ADD PUSH2 0x7D3 JUMP JUMPDEST SWAP2 POP POP SWAP3 POP SWAP3 POP SWAP3 JUMP JUMPDEST PUSH1 0x0 DUP1 PUSH1 0x40 DUP4 DUP6 SUB SLT ISZERO PUSH2 0x8AF JUMPI PUSH1 0x0 DUP1 REVERT JUMPDEST PUSH1 0x0 PUSH2 0x8BD DUP6 DUP3 DUP7 ADD PUSH2 0x7BE JUMP JUMPDEST SWAP3 POP POP PUSH1 0x20 PUSH2 0x8CE DUP6 DUP3 DUP7 ADD PUSH2 0x7D3 JUMP JUMPDEST SWAP2 POP POP SWAP3 POP SWAP3 SWAP1 POP JUMP JUMPDEST PUSH1 0x0 PUSH1 0x20 DUP3 DUP5 SUB SLT ISZERO PUSH2 0x8EA JUMPI PUSH1 0x0 DUP1 REVERT JUMPDEST PUSH1 0x0 PUSH2 0x8F8 DUP5 DUP3 DUP6 ADD PUSH2 0x7D3 JUMP JUMPDEST SWAP2 POP POP SWAP3 SWAP2 POP POP JUMP JUMPDEST PUSH2 0x90A DUP2 PUSH2 0xA08 JUMP JUMPDEST DUP3 MSTORE POP POP JUMP JUMPDEST PUSH1 0x0 PUSH2 0x91B DUP3 PUSH2 0x9DA JUMP JUMPDEST PUSH2 0x925 DUP2 DUP6 PUSH2 0x9E5 JUMP JUMPDEST SWAP4 POP PUSH2 0x935 DUP2 DUP6 PUSH1 0x20 DUP7 ADD PUSH2 0xA4B JUMP JUMPDEST PUSH2 0x93E DUP2 PUSH2 0xA7E JUMP JUMPDEST DUP5 ADD SWAP2 POP POP SWAP3 SWAP2 POP POP JUMP JUMPDEST PUSH2 0x952 DUP2 PUSH2 0xA34 JUMP JUMPDEST DUP3 MSTORE POP POP JUMP JUMPDEST PUSH2 0x961 DUP2 PUSH2 0xA3E JUMP JUMPDEST DUP3 MSTORE POP POP JUMP JUMPDEST PUSH1 0x0 PUSH1 0x20 DUP3 ADD SWAP1 POP PUSH2 0x97C PUSH1 0x0 DUP4 ADD DUP5 PUSH2 0x901 JUMP JUMPDEST SWAP3 SWAP2 POP POP JUMP JUMPDEST PUSH1 0x0 PUSH1 0x20 DUP3 ADD SWAP1 POP DUP2 DUP2 SUB PUSH1 0x0 DUP4 ADD MSTORE PUSH2 0x99C DUP2 DUP5 PUSH2 0x910 JUMP JUMPDEST SWAP1 POP SWAP3 SWAP2 POP POP JUMP JUMPDEST PUSH1 0x0 PUSH1 0x20 DUP3 ADD SWAP1 POP PUSH2 0x9B9 PUSH1 0x0 DUP4 ADD DUP5 PUSH2 0x949 JUMP JUMPDEST SWAP3 SWAP2 POP POP JUMP JUMPDEST PUSH1 0x0 PUSH1 0x20 DUP3 ADD SWAP1 POP PUSH2 0x9D4 PUSH1 0x0 DUP4 ADD DUP5 PUSH2 0x958 JUMP JUMPDEST SWAP3 SWAP2 POP POP JUMP JUMPDEST PUSH1 0x0 DUP2 MLOAD SWAP1 POP SWAP2 SWAP1 POP JUMP JUMPDEST PUSH1 0x0 DUP3 DUP3 MSTORE PUSH1 0x20 DUP3 ADD SWAP1 POP SWAP3 SWAP2 POP POP JUMP JUMPDEST PUSH1 0x0 PUSH2 0xA01 DUP3 PUSH2 0xA14 JUMP JUMPDEST SWAP1 POP SWAP2 SWAP1 POP JUMP JUMPDEST PUSH1 0x0 DUP2 ISZERO ISZERO SWAP1 POP SWAP2 SWAP1 POP JUMP JUMPDEST PUSH1 0x0 PUSH20 0xFFFFFFFFFFFFFFFFFFFFFFFFFFFFFFFFFFFFFFFF DUP3 AND SWAP1 POP SWAP2 SWAP1 POP JUMP JUMPDEST PUSH1 0x0 DUP2 SWAP1 POP SWAP2 SWAP1 POP JUMP JUMPDEST PUSH1 0x0 PUSH1 0xFF DUP3 AND SWAP1 POP SWAP2 SWAP1 POP JUMP JUMPDEST PUSH1 0x0 JUMPDEST DUP4 DUP2 LT ISZERO PUSH2 0xA69 JUMPI DUP1 DUP3 ADD MLOAD DUP2 DUP5 ADD MSTORE PUSH1 0x20 DUP2 ADD SWAP1 POP PUSH2 0xA4E JUMP JUMPDEST DUP4 DUP2 GT ISZERO PUSH2 0xA78 JUMPI PUSH1 0x0 DUP5 DUP5 ADD MSTORE JUMPDEST POP POP POP POP JUMP JUMPDEST PUSH1 0x0 PUSH1 0x1F NOT PUSH1 0x1F DUP4 ADD AND SWAP1 POP SWAP2 SWAP1 POP JUMP JUMPDEST PUSH2 0xA98 DUP2 PUSH2 0x9F6 JUMP JUMPDEST DUP2 EQ PUSH2 0xAA3 JUMPI PUSH1 0x0 DUP1 REVERT JUMPDEST POP JUMP JUMPDEST PUSH2 0xAAF DUP2 PUSH2 0xA34 JUMP JUMPDEST DUP2 EQ PUSH2 0xABA JUMPI PUSH1 0x0 DUP1 REVERT JUMPDEST POP JUMP INVALID LOG2 PUSH5 0x6970667358 0x22 SLT KECCAK256 0xE DUP4 COINBASE BYTE 0xD6 XOR EXTCODEHASH AND 0xB6 MSIZE 0xD8 0xD4 PUSH20 0x129B7E8E1E872271BAE10D3BFFAC5D270C5F1564 PUSH20 0x6F6C634300060C00330000000000000000000000 "
				},
				"gasEstimates": {
					"creation": {
						"codeDepositCost": "560600",
						"executionCost": "infinite",
						"totalCost": "infinite"
					},
					"external": {
						"allawance(address,address)": "infinite",
						"approve(address,uint256)": "infinite",
						"balanceOf(address)": "1585",
						"decimals()": "357",
						"increaseTotalSupply(uint256)": "42250",
						"name()": "infinite",
						"symbol()": "infinite",
						"totalSupply()": "1204",
						"transfer(address,uint256)": "infinite",
						"transferFrom(address,address,uint256)": "infinite"
					}
				},
				"methodIdentifiers": {
					"allawance(address,address)": "092c8d35",
					"approve(address,uint256)": "095ea7b3",
					"balanceOf(address)": "70a08231",
					"decimals()": "313ce567",
					"increaseTotalSupply(uint256)": "1d43cc98",
					"name()": "06fdde03",
					"symbol()": "95d89b41",
					"totalSupply()": "18160ddd",
					"transfer(address,uint256)": "a9059cbb",
					"transferFrom(address,address,uint256)": "23b872dd"
				}
			},
			"storageLayout": {
				"storage": [
					{
						"astId": 104,
						"contract": "custom_token/ERC20.sol:ERC20Basic",
						"label": "balences",
						"offset": 0,
						"slot": "0",
						"type": "t_mapping(t_address,t_uint256)"
					},
					{
						"astId": 110,
						"contract": "custom_token/ERC20.sol:ERC20Basic",
						"label": "allowed",
						"offset": 0,
						"slot": "1",
						"type": "t_mapping(t_address,t_mapping(t_address,t_uint256))"
					},
					{
						"astId": 112,
						"contract": "custom_token/ERC20.sol:ERC20Basic",
						"label": "totalSupply_",
						"offset": 0,
						"slot": "2",
						"type": "t_uint256"
					}
				],
				"types": {
					"t_address": {
						"encoding": "inplace",
						"label": "address",
						"numberOfBytes": "20"
					},
					"t_mapping(t_address,t_mapping(t_address,t_uint256))": {
						"encoding": "mapping",
						"key": "t_address",
						"label": "mapping(address => mapping(address => uint256))",
						"numberOfBytes": "32",
						"value": "t_mapping(t_address,t_uint256)"
					},
					"t_mapping(t_address,t_uint256)": {
						"encoding": "mapping",
						"key": "t_address",
						"label": "mapping(address => uint256)",
						"numberOfBytes": "32",
						"value": "t_uint256"
					},
					"t_uint256": {
						"encoding": "inplace",
						"label": "uint256",
						"numberOfBytes": "32"
					}
				}
			},
			"userdoc": {
				"kind": "user",
				"methods": {},
				"version": 1
			}
		}
	}
}