{
	"custom_token/ERC20.sol": {
		"ERC20Basic": {
			"abi": [
				{
					"inputs": [
						{
							"internalType": "address",
							"name": "owner",
							"type": "address"
						},
						{
							"internalType": "address",
							"name": "spender",
							"type": "address"
						}
					],
					"name": "allawance",
					"outputs": [
						{
							"internalType": "uint256",
							"name": "",
							"type": "uint256"
						}
					],
					"stateMutability": "view",
					"type": "function"
				},
				{
					"inputs": [
						{
							"internalType": "address",
							"name": "account",
							"type": "address"
						}
					],
					"name": "balanceOf",
					"outputs": [
						{
							"internalType": "uint256",
							"name": "",
							"type": "uint256"
						}
					],
					"stateMutability": "view",
					"type": "function"
				},
				{
					"inputs": [],
					"name": "totalSupply",
					"outputs": [
						{
							"internalType": "uint256",
							"name": "",
							"type": "uint256"
						}
					],
					"stateMutability": "view",
					"type": "function"
				}
			],
			"devdoc": {
				"kind": "dev",
				"methods": {},
				"version": 1
			},
			"evm": {
				"assembly": "    /* \"custom_token/ERC20.sol\":543:893  contract ERC20Basic is IERC20{... */\n  mstore(0x40, 0x80)\n  callvalue\n  dup1\n  iszero\n  tag_1\n  jumpi\n  0x00\n  dup1\n  revert\ntag_1:\n  pop\n  dataSize(sub_0)\n  dup1\n  dataOffset(sub_0)\n  0x00\n  codecopy\n  0x00\n  return\nstop\n\nsub_0: assembly {\n        /* \"custom_token/ERC20.sol\":543:893  contract ERC20Basic is IERC20{... */\n      mstore(0x40, 0x80)\n      callvalue\n      dup1\n      iszero\n      tag_1\n      jumpi\n      0x00\n      dup1\n      revert\n    tag_1:\n      pop\n      jumpi(tag_2, lt(calldatasize, 0x04))\n      shr(0xe0, calldataload(0x00))\n      dup1\n      0x092c8d35\n      eq\n      tag_3\n      jumpi\n      dup1\n      0x18160ddd\n      eq\n      tag_4\n      jumpi\n      dup1\n      0x70a08231\n      eq\n      tag_5\n      jumpi\n    tag_2:\n      0x00\n      dup1\n      revert\n        /* \"custom_token/ERC20.sol\":776:890  function allawance(address owner, address spender) public override view returns (uint256){... */\n    tag_3:\n      tag_6\n      0x04\n      dup1\n      calldatasize\n      sub\n      dup2\n      add\n      swap1\n      tag_7\n      swap2\n      swap1\n      tag_8\n      jump\t// in\n    tag_7:\n      tag_9\n      jump\t// in\n    tag_6:\n      mload(0x40)\n      tag_10\n      swap2\n      swap1\n      tag_11\n      jump\t// in\n    tag_10:\n      mload(0x40)\n      dup1\n      swap2\n      sub\n      swap1\n      return\n        /* \"custom_token/ERC20.sol\":579:665  function totalSupply() public override view returns (uint256){... */\n    tag_4:\n      tag_12\n      tag_13\n      jump\t// in\n    tag_12:\n      mload(0x40)\n      tag_14\n      swap2\n      swap1\n      tag_11\n      jump\t// in\n    tag_14:\n      mload(0x40)\n      dup1\n      swap2\n      sub\n      swap1\n      return\n        /* \"custom_token/ERC20.sol\":671:770  function balanceOf(address account) public override view returns (uint256){... */\n    tag_5:\n      tag_15\n      0x04\n      dup1\n      calldatasize\n      sub\n      dup2\n      add\n      swap1\n      tag_16\n      swap2\n      swap1\n      tag_17\n      jump\t// in\n    tag_16:\n      tag_18\n      jump\t// in\n    tag_15:\n      mload(0x40)\n      tag_19\n      swap2\n      swap1\n      tag_11\n      jump\t// in\n    tag_19:\n      mload(0x40)\n      dup1\n      swap2\n      sub\n      swap1\n      return\n        /* \"custom_token/ERC20.sol\":776:890  function allawance(address owner, address spender) public override view returns (uint256){... */\n    tag_9:\n        /* \"custom_token/ERC20.sol\":857:864  uint256 */\n      0x00\n        /* \"custom_token/ERC20.sol\":776:890  function allawance(address owner, address spender) public override view returns (uint256){... */\n      swap3\n      swap2\n      pop\n      pop\n      jump\t// out\n        /* \"custom_token/ERC20.sol\":579:665  function totalSupply() public override view returns (uint256){... */\n    tag_13:\n        /* \"custom_token/ERC20.sol\":632:639  uint256 */\n      0x00\n        /* \"custom_token/ERC20.sol\":579:665  function totalSupply() public override view returns (uint256){... */\n      swap1\n      jump\t// out\n        /* \"custom_token/ERC20.sol\":671:770  function balanceOf(address account) public override view returns (uint256){... */\n    tag_18:\n        /* \"custom_token/ERC20.sol\":737:744  uint256 */\n      0x00\n        /* \"custom_token/ERC20.sol\":671:770  function balanceOf(address account) public override view returns (uint256){... */\n      swap2\n      swap1\n      pop\n      jump\t// out\n        /* \"--CODEGEN--\":5:135   */\n    tag_24:\n      0x00\n        /* \"--CODEGEN--\":85:91   */\n      dup2\n        /* \"--CODEGEN--\":72:92   */\n      calldataload\n        /* \"--CODEGEN--\":63:92   */\n      swap1\n      pop\n        /* \"--CODEGEN--\":97:130   */\n      tag_26\n        /* \"--CODEGEN--\":124:129   */\n      dup2\n        /* \"--CODEGEN--\":97:130   */\n      tag_27\n      jump\t// in\n    tag_26:\n        /* \"--CODEGEN--\":57:135   */\n      swap3\n      swap2\n      pop\n      pop\n      jump\t// out\n        /* \"--CODEGEN--\":142:383   */\n    tag_17:\n      0x00\n        /* \"--CODEGEN--\":246:248   */\n      0x20\n        /* \"--CODEGEN--\":234:243   */\n      dup3\n        /* \"--CODEGEN--\":225:232   */\n      dup5\n        /* \"--CODEGEN--\":221:244   */\n      sub\n        /* \"--CODEGEN--\":217:249   */\n      slt\n        /* \"--CODEGEN--\":214:216   */\n      iszero\n      tag_29\n      jumpi\n        /* \"--CODEGEN--\":262:263   */\n      0x00\n        /* \"--CODEGEN--\":259:260   */\n      dup1\n        /* \"--CODEGEN--\":252:264   */\n      revert\n        /* \"--CODEGEN--\":214:216   */\n    tag_29:\n        /* \"--CODEGEN--\":297:298   */\n      0x00\n        /* \"--CODEGEN--\":314:367   */\n      tag_30\n        /* \"--CODEGEN--\":359:366   */\n      dup5\n        /* \"--CODEGEN--\":350:356   */\n      dup3\n        /* \"--CODEGEN--\":339:348   */\n      dup6\n        /* \"--CODEGEN--\":335:357   */\n      add\n        /* \"--CODEGEN--\":314:367   */\n      tag_24\n      jump\t// in\n    tag_30:\n        /* \"--CODEGEN--\":304:367   */\n      swap2\n      pop\n        /* \"--CODEGEN--\":276:373   */\n      pop\n        /* \"--CODEGEN--\":208:383   */\n      swap3\n      swap2\n      pop\n      pop\n      jump\t// out\n        /* \"--CODEGEN--\":390:756   */\n    tag_8:\n      0x00\n      dup1\n        /* \"--CODEGEN--\":511:513   */\n      0x40\n        /* \"--CODEGEN--\":499:508   */\n      dup4\n        /* \"--CODEGEN--\":490:497   */\n      dup6\n        /* \"--CODEGEN--\":486:509   */\n      sub\n        /* \"--CODEGEN--\":482:514   */\n      slt\n        /* \"--CODEGEN--\":479:481   */\n      iszero\n      tag_32\n      jumpi\n        /* \"--CODEGEN--\":527:528   */\n      0x00\n        /* \"--CODEGEN--\":524:525   */\n      dup1\n        /* \"--CODEGEN--\":517:529   */\n      revert\n        /* \"--CODEGEN--\":479:481   */\n    tag_32:\n        /* \"--CODEGEN--\":562:563   */\n      0x00\n        /* \"--CODEGEN--\":579:632   */\n      tag_33\n        /* \"--CODEGEN--\":624:631   */\n      dup6\n        /* \"--CODEGEN--\":615:621   */\n      dup3\n        /* \"--CODEGEN--\":604:613   */\n      dup7\n        /* \"--CODEGEN--\":600:622   */\n      add\n        /* \"--CODEGEN--\":579:632   */\n      tag_24\n      jump\t// in\n    tag_33:\n        /* \"--CODEGEN--\":569:632   */\n      swap3\n      pop\n        /* \"--CODEGEN--\":541:638   */\n      pop\n        /* \"--CODEGEN--\":669:671   */\n      0x20\n        /* \"--CODEGEN--\":687:740   */\n      tag_34\n        /* \"--CODEGEN--\":732:739   */\n      dup6\n        /* \"--CODEGEN--\":723:729   */\n      dup3\n        /* \"--CODEGEN--\":712:721   */\n      dup7\n        /* \"--CODEGEN--\":708:730   */\n      add\n        /* \"--CODEGEN--\":687:740   */\n      tag_24\n      jump\t// in\n    tag_34:\n        /* \"--CODEGEN--\":677:740   */\n      swap2\n      pop\n        /* \"--CODEGEN--\":648:746   */\n      pop\n        /* \"--CODEGEN--\":473:756   */\n      swap3\n      pop\n      swap3\n      swap1\n      pop\n      jump\t// out\n        /* \"--CODEGEN--\":763:876   */\n    tag_35:\n        /* \"--CODEGEN--\":846:870   */\n      tag_37\n        /* \"--CODEGEN--\":864:869   */\n      dup2\n        /* \"--CODEGEN--\":846:870   */\n      tag_38\n      jump\t// in\n    tag_37:\n        /* \"--CODEGEN--\":841:844   */\n      dup3\n        /* \"--CODEGEN--\":834:871   */\n      mstore\n        /* \"--CODEGEN--\":828:876   */\n      pop\n      pop\n      jump\t// out\n        /* \"--CODEGEN--\":883:1105   */\n    tag_11:\n      0x00\n        /* \"--CODEGEN--\":1010:1012   */\n      0x20\n        /* \"--CODEGEN--\":999:1008   */\n      dup3\n        /* \"--CODEGEN--\":995:1013   */\n      add\n        /* \"--CODEGEN--\":987:1013   */\n      swap1\n      pop\n        /* \"--CODEGEN--\":1024:1095   */\n      tag_40\n        /* \"--CODEGEN--\":1092:1093   */\n      0x00\n        /* \"--CODEGEN--\":1081:1090   */\n      dup4\n        /* \"--CODEGEN--\":1077:1094   */\n      add\n        /* \"--CODEGEN--\":1068:1074   */\n      dup5\n        /* \"--CODEGEN--\":1024:1095   */\n      tag_35\n      jump\t// in\n    tag_40:\n        /* \"--CODEGEN--\":981:1105   */\n      swap3\n      swap2\n      pop\n      pop\n      jump\t// out\n        /* \"--CODEGEN--\":1112:1203   */\n    tag_41:\n      0x00\n        /* \"--CODEGEN--\":1174:1198   */\n      tag_43\n        /* \"--CODEGEN--\":1192:1197   */\n      dup3\n        /* \"--CODEGEN--\":1174:1198   */\n      tag_44\n      jump\t// in\n    tag_43:\n        /* \"--CODEGEN--\":1163:1198   */\n      swap1\n      pop\n        /* \"--CODEGEN--\":1157:1203   */\n      swap2\n      swap1\n      pop\n      jump\t// out\n        /* \"--CODEGEN--\":1210:1331   */\n    tag_44:\n      0x00\n        /* \"--CODEGEN--\":1283:1325   */\n      0xffffffffffffffffffffffffffffffffffffffff\n        /* \"--CODEGEN--\":1276:1281   */\n      dup3\n        /* \"--CODEGEN--\":1272:1326   */\n      and\n        /* \"--CODEGEN--\":1261:1326   */\n      swap1\n      pop\n        /* \"--CODEGEN--\":1255:1331   */\n      swap2\n      swap1\n      pop\n      jump\t// out\n        /* \"--CODEGEN--\":1338:1410   */\n    tag_38:\n      0x00\n        /* \"--CODEGEN--\":1400:1405   */\n      dup2\n        /* \"--CODEGEN--\":1389:1405   */\n      swap1\n      pop\n        /* \"--CODEGEN--\":1383:1410   */\n      swap2\n      swap1\n      pop\n      jump\t// out\n        /* \"--CODEGEN--\":1417:1534   */\n    tag_27:\n        /* \"--CODEGEN--\":1486:1510   */\n      tag_48\n        /* \"--CODEGEN--\":1504:1509   */\n      dup2\n        /* \"--CODEGEN--\":1486:1510   */\n      tag_41\n      jump\t// in\n    tag_48:\n        /* \"--CODEGEN--\":1479:1484   */\n      dup2\n        /* \"--CODEGEN--\":1476:1511   */\n      eq\n        /* \"--CODEGEN--\":1466:1468   */\n      tag_49\n      jumpi\n        /* \"--CODEGEN--\":1525:1526   */\n      0x00\n        /* \"--CODEGEN--\":1522:1523   */\n      dup1\n        /* \"--CODEGEN--\":1515:1527   */\n      revert\n        /* \"--CODEGEN--\":1466:1468   */\n    tag_49:\n        /* \"--CODEGEN--\":1460:1534   */\n      pop\n      jump\t// out\n\n    auxdata: 0xa264697066735822122096748e550a207b61c12c13a4f5ed52dbe1d37b78c9fc7e5ee7d8ef79926697f164736f6c634300060c0033\n}\n",
				"bytecode": {
					"linkReferences": {},
					"object": "608060405234801561001057600080fd5b50610205806100206000396000f3fe608060405234801561001057600080fd5b50600436106100415760003560e01c8063092c8d351461004657806318160ddd1461007657806370a0823114610094575b600080fd5b610060600480360381019061005b9190610116565b6100c4565b60405161006d9190610161565b60405180910390f35b61007e6100cc565b60405161008b9190610161565b60405180910390f35b6100ae60048036038101906100a991906100ed565b6100d1565b6040516100bb9190610161565b60405180910390f35b600092915050565b600090565b6000919050565b6000813590506100e7816101b8565b92915050565b6000602082840312156100ff57600080fd5b600061010d848285016100d8565b91505092915050565b6000806040838503121561012957600080fd5b6000610137858286016100d8565b9250506020610148858286016100d8565b9150509250929050565b61015b816101ae565b82525050565b60006020820190506101766000830184610152565b92915050565b60006101878261018e565b9050919050565b600073ffffffffffffffffffffffffffffffffffffffff82169050919050565b6000819050919050565b6101c18161017c565b81146101cc57600080fd5b5056fea264697066735822122096748e550a207b61c12c13a4f5ed52dbe1d37b78c9fc7e5ee7d8ef79926697f164736f6c634300060c0033",
					"opcodes": "PUSH1 0x80 PUSH1 0x40 MSTORE CALLVALUE DUP1 ISZERO PUSH2 0x10 JUMPI PUSH1 0x0 DUP1 REVERT JUMPDEST POP PUSH2 0x205 DUP1 PUSH2 0x20 PUSH1 0x0 CODECOPY PUSH1 0x0 RETURN INVALID PUSH1 0x80 PUSH1 0x40 MSTORE CALLVALUE DUP1 ISZERO PUSH2 0x10 JUMPI PUSH1 0x0 DUP1 REVERT JUMPDEST POP PUSH1 0x4 CALLDATASIZE LT PUSH2 0x41 JUMPI PUSH1 0x0 CALLDATALOAD PUSH1 0xE0 SHR DUP1 PUSH4 0x92C8D35 EQ PUSH2 0x46 JUMPI DUP1 PUSH4 0x18160DDD EQ PUSH2 0x76 JUMPI DUP1 PUSH4 0x70A08231 EQ PUSH2 0x94 JUMPI JUMPDEST PUSH1 0x0 DUP1 REVERT JUMPDEST PUSH2 0x60 PUSH1 0x4 DUP1 CALLDATASIZE SUB DUP2 ADD SWAP1 PUSH2 0x5B SWAP2 SWAP1 PUSH2 0x116 JUMP JUMPDEST PUSH2 0xC4 JUMP JUMPDEST PUSH1 0x40 MLOAD PUSH2 0x6D SWAP2 SWAP1 PUSH2 0x161 JUMP JUMPDEST PUSH1 0x40 MLOAD DUP1 SWAP2 SUB SWAP1 RETURN JUMPDEST PUSH2 0x7E PUSH2 0xCC JUMP JUMPDEST PUSH1 0x40 MLOAD PUSH2 0x8B SWAP2 SWAP1 PUSH2 0x161 JUMP JUMPDEST PUSH1 0x40 MLOAD DUP1 SWAP2 SUB SWAP1 RETURN JUMPDEST PUSH2 0xAE PUSH1 0x4 DUP1 CALLDATASIZE SUB DUP2 ADD SWAP1 PUSH2 0xA9 SWAP2 SWAP1 PUSH2 0xED JUMP JUMPDEST PUSH2 0xD1 JUMP JUMPDEST PUSH1 0x40 MLOAD PUSH2 0xBB SWAP2 SWAP1 PUSH2 0x161 JUMP JUMPDEST PUSH1 0x40 MLOAD DUP1 SWAP2 SUB SWAP1 RETURN JUMPDEST PUSH1 0x0 SWAP3 SWAP2 POP POP JUMP JUMPDEST PUSH1 0x0 SWAP1 JUMP JUMPDEST PUSH1 0x0 SWAP2 SWAP1 POP JUMP JUMPDEST PUSH1 0x0 DUP2 CALLDATALOAD SWAP1 POP PUSH2 0xE7 DUP2 PUSH2 0x1B8 JUMP JUMPDEST SWAP3 SWAP2 POP POP JUMP JUMPDEST PUSH1 0x0 PUSH1 0x20 DUP3 DUP5 SUB SLT ISZERO PUSH2 0xFF JUMPI PUSH1 0x0 DUP1 REVERT JUMPDEST PUSH1 0x0 PUSH2 0x10D DUP5 DUP3 DUP6 ADD PUSH2 0xD8 JUMP JUMPDEST SWAP2 POP POP SWAP3 SWAP2 POP POP JUMP JUMPDEST PUSH1 0x0 DUP1 PUSH1 0x40 DUP4 DUP6 SUB SLT ISZERO PUSH2 0x129 JUMPI PUSH1 0x0 DUP1 REVERT JUMPDEST PUSH1 0x0 PUSH2 0x137 DUP6 DUP3 DUP7 ADD PUSH2 0xD8 JUMP JUMPDEST SWAP3 POP POP PUSH1 0x20 PUSH2 0x148 DUP6 DUP3 DUP7 ADD PUSH2 0xD8 JUMP JUMPDEST SWAP2 POP POP SWAP3 POP SWAP3 SWAP1 POP JUMP JUMPDEST PUSH2 0x15B DUP2 PUSH2 0x1AE JUMP JUMPDEST DUP3 MSTORE POP POP JUMP JUMPDEST PUSH1 0x0 PUSH1 0x20 DUP3 ADD SWAP1 POP PUSH2 0x176 PUSH1 0x0 DUP4 ADD DUP5 PUSH2 0x152 JUMP JUMPDEST SWAP3 SWAP2 POP POP JUMP JUMPDEST PUSH1 0x0 PUSH2 0x187 DUP3 PUSH2 0x18E JUMP JUMPDEST SWAP1 POP SWAP2 SWAP1 POP JUMP JUMPDEST PUSH1 0x0 PUSH20 0xFFFFFFFFFFFFFFFFFFFFFFFFFFFFFFFFFFFFFFFF DUP3 AND SWAP1 POP SWAP2 SWAP1 POP JUMP JUMPDEST PUSH1 0x0 DUP2 SWAP1 POP SWAP2 SWAP1 POP JUMP JUMPDEST PUSH2 0x1C1 DUP2 PUSH2 0x17C JUMP JUMPDEST DUP2 EQ PUSH2 0x1CC JUMPI PUSH1 0x0 DUP1 REVERT JUMPDEST POP JUMP INVALID LOG2 PUSH5 0x6970667358 0x22 SLT KECCAK256 SWAP7 PUSH21 0x8E550A207B61C12C13A4F5ED52DBE1D37B78C9FC7E 0x5E 0xE7 0xD8 0xEF PUSH26 0x926697F164736F6C634300060C00330000000000000000000000 "
				},
				"gasEstimates": {
					"creation": {
						"codeDepositCost": "103400",
						"executionCost": "153",
						"totalCost": "103553"
					},
					"external": {
						"allawance(address,address)": "infinite",
						"balanceOf(address)": "665",
						"totalSupply()": "329"
					}
				},
				"methodIdentifiers": {
					"allawance(address,address)": "092c8d35",
					"balanceOf(address)": "70a08231",
					"totalSupply()": "18160ddd"
				}
			},
			"storageLayout": {
				"storage": [],
				"types": null
			},
			"userdoc": {
				"kind": "user",
				"methods": {},
				"version": 1
			}
		}
	}
}